:020000040800F2
:1000000048DF00203DAF00082DA400082FA4000801
:1000100031A4000833A4000835A400080000000043
:1000200000000000000000000000000037A40008ED
:1000300039A40008000000003BA400083DA400080B
:1000400017B000081BB000081FB0000823B000085C
:1000500027B000082BB000082FB0000833B000080C
:1000600037B000083BB000083FB0000849A40008C2
:1000700053A4000843B000085DA4000847B000087E
:1000800067A4000871A400084BB000084FB0000836
:100090007BA4000853B0000857B000085BB000080C
:1000A0005FB0000863B0000867B000086BB00008DC
:1000B0006FB0000873B0000877B000087BB000088C
:1000C0007FB0000883B0000887B000088BB000083C
:1000D0008FB0000885A400089FA40008B9A40008F8
:1000E00093B0000897B000089BB000089FB00008CC
:1000F000A3B00008A7B00008ABB00008D3A4000864
:10010000AFB00008B3B00008B7B00008BBB000083B
:10011000BFB00008DDA40008C3B00008C7B00008E5
:10012000F5A40008CBB00008FFA40008CFB0000879
:10013000D3B00008D7B00008DBB00008DFB000087B
:10014000E3B00008E7B00008EBB00008EFB000082B
:10015000F3B00008F7B0000809A50008FBB00008DC
:10016000FFB0000803B1000807B100080BB1000898
:100170000FB1000813B1000817B10008000000001B
:100180001BB100081FB1000800F5E0700268914241
:1001900003D343681A44914202D380680028F5D102
:1001A0007047DFF80817086890B94FF4805048602E
:1001B0004FF480324FF0FF30C86008610420DFF850
:1001C000F0368A604861C3F8BC01DFF8E8060860D1
:1001D0000120704701F1080313F0070F0EBF002341
:1001E000C3F1080303F007031944D21A8161C26006
:1001F00042F001034B60091D4FF0280C41F802C08A
:10020000DFF8A8261369C36170472DE9FC4B074648
:1002100001F1080010F0070F0FBF8946C0F1080078
:1002200000F0070001EB000902F1080111F0070FCF
:1002300006D002F10800C0F1080000F007000244F7
:100240001546A5EB090009EB0306A0EB030B43F0F1
:100250000303C9F80430AE4228BF00F055FF2879E7
:10026000C10758BF00F050FFBBF1100F38BF00F0BE
:100270004BFFB869854208D1F9688B44C7F80CB0C8
:10028000BE614BF00100706051E1786985420AD18E
:10029000B9688B44C7F808B07E614BF0010070600C
:1002A00046F80BB043E1686800F00301012940F013
:1002B000AC80C008C0000190C0081F2839D8AC68C5
:1002C000D5F80C800090454508BF00F01DFFA54201
:1002D00008BF00F019FF68680099C008C000B0EBC3
:1002E000C10F18BF00F010FF009907F1280000EBC4
:1002F000C100844206D039698C42C0F08180E26836
:10030000AA427DD1A04506D10098396801238340D7
:100310009943396076E0804506D0396988456FD3C6
:10032000D8F80800A8426BD1C4F80C80C8F808407F
:1003300068E0EC68D5F81880AC420CD0A868396940
:10034000884223D3C268AA4204BFA168A9421DD132
:10035000C460A0601CE005F114010C6834B905F11B
:1003600010010C68A4B101E011460C6804F11402FC
:100370001068002802BF04F1100210680028F3D1B1
:100380003869814202D300220A6001E000F0BCFE1D
:10039000B8F1000F36D0E96907F5987000EB8100DD
:1003A0000268954208D10460A4B9E869796801221D
:1003B00082409143796025E03869804508D3D8F8B8
:1003C0001010A94214BFC8F81440C8F8104001E04A
:1003D00000F09AFEB4B139698C4211D3C4F8188088
:1003E000286928B1884226BF2061846100F08CFE14
:1003F000686938B13969884202D36061846101E07B
:1004000000F082FE01996D188B4469684908490023
:1004100069604BF0010070604FEADB0446F80BB0F6
:100420001F2C23D807F1280000EBC4084546BBF178
:10043000100F38BF00F068FE386820FA04F1CA07D0
:1004400005D4012101FA04F404433C6007E0D8F824
:100450000800396988422CBF054600F055FEC8F8EF
:100460000860EE60B560C6F80C8060E05FEA1B20B3
:1004700008BF002123D0B0F5803F28BF1F211ED226
:10048000A0F58072120C02F008029040A0F5805195
:10049000090C01F004018840A0F580431B0CC2F157
:1004A0000E0203F00203521AD21A984002EBD03225
:1004B000D01D2BFA00F101F0010101EB4201F161C5
:1004C000002307F59872736102EB810033617A684B
:1004D00022FA01F3DC0707D4012303FA01F11143E7
:1004E00079600660B0611DE002681F291DBF4908E0
:1004F000C1F119010BFA01F1594600E002465068BA
:10050000C008C000584516D002F11003C80F03EB15
:100510008003490018680028F0D13869834204D369
:100520001E60B261F660B66001E000F0EDFD09F119
:100530000800BDE8F68B396990688A4228BF884276
:10054000F3D3C6609660B060F2600020B061EEE761
:100550002DE9FE4F04468B46A5692E4690469946E6
:100560003146FFF711FE0268416802EB010AAAF169
:10057000270111F007000EBF0021C1F1080101F0B1
:1005800007010AEB0100A0F12F0706F110018F42CD
:1005900038BF374607F11802002101920091A8F1F7
:1005A000280259462046FFF715FE07F1080010F013
:1005B000070F18BF00F0A8FD1B20786007F10801A5
:1005C00004F5E07090E80C5081E80C50C0F800B0E1
:1005D000C0F80480C0F80C9081600722019800994F
:1005E00000E0001D491C00F1080353454260F8D3A8
:1005F0000129D8BF00F088FDB74200F09580BF1BED
:10060000301D321DC15949084900D15147F0010040
:1006100070604FEAD70BF751BBF11F0F21D804EBE5
:10062000CB0000F12805A846102F38BF00F06CFD64
:10063000206820FA0BF1CA0705D4012101FA0BF159
:100640000843206006E0A868216988422CBF8046E4
:1006500000F05AFDAE60C8F80C60C6F80880F5607E
:100660006FE0380A08BF002123D0B0F5803F28BFD3
:100670001F211ED2A0F58072120C02F008029040D9
:10068000A0F58051090C01F004018840A0F58043D9
:100690001B0CC2F10E0203F00203521AD21A984048
:1006A00002EBD032D01D27FA00F101F0010101EB7D
:1006B000420104EB8102002302F59870F16173613D
:1006C0003361626822FA01F3DB0707D4012303FADE
:1006D00001F1114361600660B0611DE002681F29ED
:1006E0001DBF4908C1F1190107FA01F1394600E0BF
:1006F00002465068C008C000B84216D002F110038C
:10070000C80F03EB8003490018680028F0D1206966
:10071000834204D31E60B261F660B56011E003B09D
:10072000BDE8F04F00F0F0BC0BE0216990688A4210
:1007300028BF8842F3D3C6609560B060F2600020A5
:10074000B06103B0BDE8F08F2DE9F041574F054689
:100750003868884608B9FFF724FDB96801EB08003E
:100760002F30491E20EA010188457DD205F5D87653
:10077000B06828B1326889188A4275D2884273D32A
:1007800000F002FD01001CBF0C6811F1010F6BD0DD
:100790003068201805F5D87230605368984238BF29
:1007A00018467060A86960BB286908B1814200D210
:1007B0002961316174610020F0614FF0FF303A68C7
:1007C0006A62286205F128020020D260926002F17C
:1007D000080757611761801C10322028F5D3344870
:1007E000854208BFA4F1280228D055F8040CC0089F
:1007F00005EBC002A2F108000A19121A283A0146B4
:100800001CE005F5E070024600E092687AB31368D8
:1008100057681F44B942F8D1137B1F0727D4AB692F
:100820001768BB4223D3D2F804C06744BB421ED230
:10083000A444C2F804C0E868A96922182846FFF752
:10084000C9FC1FE08068C0B103689342FAD1027B03
:10085000130712D4026801604368E41844604346F9
:100860002846BDE8F041D0E40020BDE8F0812A69C7
:10087000914238BF29610A19E5E70023224628463C
:10088000FFF766FEE8688045EED2A0EB0800A96994
:10089000E86001EB0802AA6140F00100506048F0F6
:1008A0000300486001F10800BDE8F08164CC00203D
:1008B00064BE00206859883C2DE9F84F0025894620
:1008C000090AC9F1000B08BF002323D0B1F5803F0E
:1008D00028BF1F231ED2A1F58072120C02F008025D
:1008E0009140A1F580531B0C03F004039940A1F53E
:1008F0008044240CC2F10E0204F00204D21A121B2E
:10090000A14002EBD132D11D29FA01F303F001031A
:1009100003EB4203074607F5987858F8230030B3F5
:100920001F2B0FBF4C465C08C4F1190409FA04F4EC
:10093000AC46594600E064004268D208D200A2EBFF
:1009400009028A4203D21100054600F0698142691A
:1009500010304FEAD47B50F82B00002A1CBF824293
:1009600094460028E7D18B466046B0BBBDBB012250
:1009700002FA03F35B005842796803430B4000F02E
:100980004E81584203405B1E180B00F01000C3401C
:10099000590901F00801CB409A0802F00402D34043
:1009A0005C0804F002040818E3401018C3F3400682
:1009B00020183044F3401B1858F823000DE0084677
:1009C0004168C908C900A1EB090159453CBF8B46E4
:1009D000054601690029F2D140690028F0D1002DB7
:1009E00000F01D81B868A0EB0900834580F01781F5
:1009F00039698D42C0F011816868C008C00009EBF8
:100A00000B01884218BF00F07FFB05EB0906B542D9
:100A100080F00381EC68D5F818A0AC420CD0A8682F
:100A20003969884223D3C268AA4204BFA168A94297
:100A30001DD1C460A0601CE005F114010C6834B93C
:100A400005F110010C68A4B101E011460C6804F135
:100A500014021068002802BF04F110021068002878
:100A6000F3D13869814202D300220A6001E000F02C
:100A70004BFBBAF1000F36D0E86908EB8000016843
:100A80008D4209D10460200014D1E86979680122FF
:100A900082409143796026E03869824508D3DAF8CC
:100AA0001010A94214BFCAF81440CAF8104001E05F
:100AB00000F02AFBBCB13869844212D3C4F818A0F4
:100AC000286930B13969884226BF2061846100F00D
:100AD0001BFB686938B13969884202D3606184615F
:100AE00001E000F011FBBBF1100F0CD2D94449F02A
:100AF0000300291D6860281D51F8092042F00102F9
:100B000040F8092088E049F0030068604BF00100DC
:100B100070604FEADB0046F80BB01F281DD807EBCA
:100B2000C00101F12804396821FA00F2D307A34675
:100B300005D4012202FA00F00843386006E0A068FC
:100B4000396988422CBF834600F0DEFAA660CBF8F4
:100B50000C60C6F808B0F4605EE05FEA1B2008BFD6
:100B6000002123D0B0F5803F28BF1F211ED2A0F561
:100B70008072120C02F008029040A0F58051090C1E
:100B800001F004018840A0F580431B0CC2F10E0265
:100B900003F00203521AD21A984002EBD032D01D51
:100BA0002BFA00F101F0010101EB4201F161002299
:100BB0007261326108EB81007A6822FA01F4E3077E
:100BC00007D4012404FA01F1114379600660B06191
:100BD0001DE002681F291DBF4908C1F119010BFA68
:100BE00001F1594600E002465068C008C00058456F
:100BF00018D002F11003C80F03EB800349001868F6
:100C00000028F0D13869834204D31E60B261F660D7
:100C1000B66001E000F078FA14E100F075FA0EE138
:100C20008B46A2E6396990688A4228BF8842F1D390
:100C3000C6609660B060F2600020B061ECE72DE91C
:100C4000F84F06468846716848420140491E080B25
:100C500000F01000C1404A0902F00802D1408B08A0
:100C600003F00403D9404D0805F002051018E940CF
:100C70001818C1F34004281806F5987A2044E1407A
:100C800009185AF821104868C008C0000D46A0EBAA
:100C9000080909E001464868C008C000A0EB080048
:100CA00048453CBF81460D4608690028F2D1496994
:100CB0000029F0D130698542C0F0BF806968C90859
:100CC00008EB090BC900594518BF00F01DFA05EBE8
:100CD00008008542009080F0B080EF68AC69AF42B8
:100CE0000CD0A8683169884223D3C268AA4204BFE5
:100CF000B968A9421DD1C760B8601CE005F11401B4
:100D00000F6837B905F110010F68A7B101E011466E
:100D10000F6807F114021068002802BF07F11002E3
:100D200010680028F3D13069814202D300220A60A2
:100D300001E000F0E9F9002C31D0E8690AEB80000D
:100D400001688D4208D107608FB9E8697168012296
:100D500082409143716022E03069844205D3216969
:100D6000A94214BF6761276101E000F0CDF9B7B176
:100D70003069874211D3BC61286930B1316988423A
:100D800026BF3861876100F0BFF9686938B1316901
:100D9000884202D37861876101E000F0B5F9B9F1CA
:100DA000100F0BD24BF00300291D6860281D51F86D
:100DB0000B2042F0010240F80B203DE048F0030117
:100DC0002A1D696049F0010042F80800009941F8C5
:100DD0000990D6F808804FEAD80BBBF1200F28BF46
:100DE00000F092F9B8F1000F22D006EBCB00776942
:100DF00000F12804A246B8F1100F38BF00F084F9C2
:100E0000306820FA0BF1CA0705D4012101FA0BF171
:100E10000843306006E0A068316988422CBF8246F2
:100E200000F072F9A760CAF80C70C7F808A0FC605F
:100E3000C6F808900098706104E000F065F90020A1
:100E4000BDE8F28F05F10800BDE8F28F2DE9FE4FF5
:100E50000546AFF30080F52DDFF8A86280F004812D
:100E60000B2D31BF10250B35ED08ED003068EC0877
:100E7000E04010F0030F46D0C04300F00100041919
:100E800006F1280000EBC408E700D8F808506868AD
:100E9000C008C000B84218BF00F036F9D5F8089075
:100EA000454508BF00F030F94D4508BF00F02CF96A
:100EB0006868C008C000B84218BF00F025F9C845EE
:100EC00007D13068012101FA04F420EA04043460F7
:100ED0000DE03069814508D3D9F80C10A94204D13E
:100EE000C8F80890C9F80C8001E000F00DF947F04F
:100EF0000300291D6860281DCA5942F00102C25131
:100F000005F10804F8E0B168A94280F0BE8000282D
:100F100000F0A1804FF0010808FA04F1490000FA3E
:100F200004F4484201430C4060420440641E200B1C
:100F300000F01000C440610901F00801CC40A20893
:100F400002F00402D440630803F002030818DC40F6
:100F50001018C4F3400718183818FC40241806F17C
:100F6000280000EBC40AE700DAF80890D9F804007A
:100F7000C008C000B84218BF00F0C6F8D9F808B0E1
:100F8000D14508BF00F0C0F8D94508BF00F0BCF853
:100F9000D9F80400C008C000B84218BF00F0B4F887
:100FA000DA4506D1306808FA04F420EA0404346013
:100FB0000DE031698B4508D3DBF80C00484504D1BE
:100FC000CAF808B0CBF80CA001E000F09DF87F1B38
:100FD00045F0030009F10402C9F8040047F00101DB
:100FE000515109EB05020192D751B4684FEAD40A76
:100FF000BAF1200F28BF00F087F834B3CDF800A075
:1010000006F12800756900EBCA0AD346102C38BFD8
:1010100000F07AF83168009821FA00F2D30704D47E
:1010200008FA00F00843306007E0DAF80800316998
:1010300088422CBF834600F067F8CAF80850CBF806
:101040000C50C5F808B0C5F80CA0B76009F1080449
:101050000198706150E07068C0B329463046FFF7D0
:10106000EEFD040011D047E015F1400F28BF4FF00E
:10107000FF350AD20B35ED087068ED0028B129461E
:101080003046FFF719FC040036D1B068A8421DD3E2
:10109000411B726910290AD350197061B16041F087
:1010A00001034360415045F0030555600BE000210A
:1010B000B1607161131D40F003015160111D1C5896
:1010C00044F001040C5002F1080415E0F068854278
:1010D0000DD2401BB169F0604A19B26140F00100C5
:1010E000506045F003054D6001F1080404E0294615
:1010F0003046FFF729FB0446AFF300802046FFF798
:1011000020BB000064BE0020012000F053B8F0B402
:101110000246106895681318506803EB5004C00726
:101120001DD54D441BE013F8017B05F8017B491EDA
:10113000F9D1A0B1B60813F8011B06F00306032E7F
:1011400008BF13F8016B01EB06214942801C2944BA
:1011500005D011F8016B05F8016B401EF9D1A342CF
:101160000ED013F8016B16F0030104BF13F8011B36
:10117000C91C30090F28DAD113F8010B0F30D6E75C
:10118000F0BC02F10C0070470749086808B1002064
:1011900070470648C008C00008600549C908C90072
:1011A000091A0160704700BF3CCD00204FDF0020CE
:1011B00048EF002080B5AFF30080024A11001820EC
:1011C000ABBEFBE7260002002DE9F04F0FF2A41C96
:1011D000A1B0DCE90089CDE900892A9DDFF8109CE7
:1011E000049100248DF843500D944FF0FF3882464F
:1011F00016461F460FE0B3462C461BF8011B049809
:10120000D0470028049000F0A2800D98401C641E76
:101210000D90F2D176193078252808D100210022CE
:101220000791089209910A920B910C920DE06A467F
:101230004146304600F0F2FF050001D10D98A1E0D3
:10124000D9D50125E6E741F0010116F8010F202864
:10125000F9D023280CD02B2804D02D2805D03028F5
:1012600009D076E041F00201EFE741F00401ECE73C
:1012700041F00801E9E741F01001E6E70F9209E0CB
:101280000F98484505DA00EB800402EB4402303A3F
:101290000F92761C3278A2F130000A28F0D3307811
:1012A0002E2818BFCDF8388022D116F8010F2A2831
:1012B00007D138683860761C50F8042B38600E92DD
:1012C00016E02D280CBF761C002000220E920AE0AA
:1012D00040B90E9A4A4505DA02EB820403EB440357
:1012E000303B0E93761C3378A3F130020A2AEFD3F9
:1012F000ADF8401021A0317800F09AFF08B116F83F
:10130000010B8DF842009DF84200682804D1307826
:1013100068280AD1622105E06C2804BF30786C2867
:1013200003D171218DF84210761C12A806903A461E
:1013300016F8013B02A9504600F064F838B912AA29
:1013400002A9504600F0CAF900287FF564AF404674
:1013500018E02A2892D13A683A6052F8040B3A60B1
:1013600000280F9003D540420F9041F00401761CF5
:1013700095E700000000000000000000686A6C743F
:101380007A4C000021B0BDE8F08F622820D0682898
:1013900011D06A2803D06C2827D0712825D108687D
:1013A000C01D20F007000860D0E900230830086065
:1013B000194610467047002A0A680A60106803D070
:1013C000121D0A6000B217E0121D0A6080B217E019
:1013D000002A0A680A60106803D0121D0A6040B231
:1013E0000AE0121D0A60C0B20AE0002A0A680A6018
:1013F000106803D0121D0A60C1177047121D0A60E1
:10140000002170477CB50D4611461C462E69B4F18B
:10141000250200F051811C3A00F08680121F022A3A
:1014200040F282800E3A00F00B81521F5AD0093AE6
:101430007AD0921E16D0521E35D0521E022A73D96F
:10144000121F30D0521F00F09A80521E4AD0521EF6
:1014500000F0E480D21E00F00181921E42D0D21E24
:1014600040D02FE195F83A406C2C09D06869421CB5
:101470006A610A680A6052F8043B0A6033542BE13F
:101480000A680A6052F8043B0A6000930022019245
:101490004FF0FF332B636A46294600F09AF9002883
:1014A00040F11A8105E195F83A000122FFF76DFF3E
:1014B000C5E900010023994204DA6869411C6961A9
:1014C0002D220DE0288F810704D56869411C6961D0
:1014D0002B2205E0C00722D56869411C69612022E2
:1014E00032541CE095F83A000022FFF74EFFC5E9A0
:1014F000000195F83800010711D5D5E90023002037
:10150000834208BF82420AD044F02000782806D1E6
:10151000686930213154401C421C6A6134542146B0
:1015200068693044E86087E00868C01D20F0070063
:101530000860D0E9002308300860C5E90023D5E938
:101540000001C80F04D06869411C69612D220DE0BB
:10155000288F810704D56869411C69612B2205E049
:10156000C00704D56869411C69612022325468694A
:101570003044E8602146284600F03AFAACE005F134
:101580003A02507820B14FF0FF340FF6343074E057
:101590001078622808D0682824D06A2812D06C28D5
:1015A0002ED071280ED02BE00A680A6052F8040B86
:1015B0000A6020B94FF0FF340FF61C305DE0E96A95
:1015C000017089E00A680A6052F8040B0A6020B9C9
:1015D0004FF0FF340FF600304FE0EA6AD317C0E94E
:1015E000002379E00A680A6052F8040B0A6020B907
:1015F0004FF0FF340FF6E0203FE0E96A01806BE036
:101600000A680A6052F8040B0A6020B94FF0FF34F0
:101610000FF6C42031E0E96A01605DE00A680A6003
:1016200052F8040B0A60002120F0000221F0FF3381
:10163000C5E90023EE607821284600F02DF94BE043
:101640006C2285F83A200B680B6053F8042B0B6072
:1016500052BB4FF0FF340FF6B4200EE095F83A205D
:101660006C2AF0D00868086050F8044B0860EC6001
:101670003CB94FF0FF340FF6782000F0F3FD201A4C
:1016800076BD2E6B002E04D5204600F00BFE0446DE
:1016900008E032460021204600F02CFE002814BF4E
:1016A000041B3446AC6117E0294600F092F800288C
:1016B00012D54FF0FF3076BD6869411C6961252263
:1016C000325409E06969481C68612522725421007E
:1016D00002D0431C6B613454002076BD2DE9F041EB
:1016E0000E4605469046726B7069316AB46A121AEA
:1016F000B069521A716A121AF069521A121A96F8DF
:101700003800141B41070DD4002C0BDD2746B068B0
:101710002021A8470028B06057D0F06A401C7F1EE7
:10172000F062F4D1736942463146284600F0B0FCBD
:1017300000284AD1376A002F0ADDB0683021A84757
:101740000028B06041D0F06A401C7F1EF062F4D1E6
:10175000B369F2683146284600F09AFCA8BB776A64
:10176000002F09DDB0683021A847B06068B3F06A87
:10177000401C7F1EF062F5D1F068B169F369421830
:101780003146284600F084FCF8B9B76A002F09DD1D
:10179000B0683021A847B060B8B1F06A401C7F1E25
:1017A000F062F5D196F8380041070BD5002C09DD21
:1017B000B0682021A847B06038B1F06A401C641EB0
:1017C000F062F5D10020BDE8F0814FF0FF30BDE8B8
:1017D000F0812DE9F8470D46A3B02F6B002F064688
:1017E000904648BF6FF000470FF63C1400F0AEFD86
:1017F000D4E90023696B4018CDE90123812828BF73
:101800004FF0FF3042D20024002F33DDD8F8001013
:1018100001AA684600F004FD8146B9F1000F38D4F2
:10182000D8F8000010B9B9F1010932D44F4521DBD5
:101830006869484481280AD30021696303AA2946BC
:101840003046FFF74BFF040014D40020686103AB5F
:10185000D5F814A04A46694603EB0A0000F07CFD67
:10186000CA44C5F814A058F8040B002818BFA7EB09
:101870000907C9D14CB903AA29463046FFF72EFF04
:10188000044614B9002068616863204624B0BDE8AE
:10189000F0874FF0FF34F8E72DE9FC4707468C4608
:1018A0003E69BCF16F0F08BF082405D04CF0200042
:1018B000782814BF0A2410243C25D7E90023BCF162
:1018C000640F18BFBCF1690F9046994606D10021FC
:1018D0008B4203DAD8F1000869EB49094FF0000A9E
:1018E000D14508BFD0451FD1386BE8B9082C4BD182
:1018F00097F83800010747D530203B2586F83B0094
:1019000042E000280ED597F8380000F014001028A7
:1019100008D17B6B7969386A5B1A1B1A9A1A002AFC
:10192000C8BF3A62BDE8F3878DF800C0404649461B
:101930002246E31700F064FD3032D0B26D1E3A2823
:10194000019504DB9DF80000A0F151018A18725541
:10195000404649462246E31700F052FD894680463C
:10196000D14508BFD04503D0F86871198842DDD34E
:10197000082C09D197F83800010705D5705D30288B
:1019800002D06D1E30207055C5F13C02BA6171194C
:10199000F960386B8242B4DA821A3A624FF6EF701D
:1019A000398F01403987BDE8F3872DE9D0430646DA
:1019B0000F4614464FF00008DFF8389412E0E007B5
:1019C00007D542464B463046394600F031FE0646C2
:1019D0000F464046494642464B4600F029FE6410F9
:1019E00080468946002CEAD130463946BDE8D0838E
:1019F0002DE9F34F054641F020048DB0D5E900896B
:101A0000612C02AE09D0286B002848BF062003D401
:101A100008BF672C01D101202863D5E900235800B5
:101A20004015401C0ED119030CD00320A8619DF86D
:101A3000381061391A2902D20FF2F46111E00FF265
:101A4000F4610EE059004915491C0FD118030DD15E
:101A50000320A8619DF8381061391A2914D30FF2B8
:101A6000DC61E868032200F077FCD3E1194621F03D
:101A70000043B3F5801F10460DD20027BB4208BFBC
:101A8000BA42019703D111E00FF2AC61E9E701AA74
:101A900000F0A0FE0AE0DFF8607307EB1352DFF8F6
:101AA0005C3301921940DFF858331943C5E900014E
:101AB000612C0ED1E86830210170821CEA609DF82B
:101AC000381061290CBF7821582141706869801C49
:101AD0006861D5E900AB2BF0004300202AF000023A
:101AE000834204BF8242002300F05B81612C40F0FE
:101AF000AA80286B002847BF21210091401C00903C
:101B0000009F7F1C404649460022002300F09AFEB9
:101B1000D94601998DF8082038BF89F00049091F7E
:101B2000002FD04601910DF1090040F34981B349DE
:101B3000DFF8D0B20C910646404649460022002309
:101B400000F098FE80F03B814800400D00F11C023F
:101B500011D0002A0FDD40F2FF70824205DB09F050
:101B6000004040EA0B01002013E00C98014041EADC
:101B7000025140460DE029F00043002028F0000209
:101B8000834208BF82420FBF40461C22404600F0FD
:101B900089FE8046894600F023FFFF1F002F044680
:101BA00009DD00F03BFF02460B464046494600F087
:101BB00047FF80468946F01D072104E004F00F022C
:101BC00000F8012D2411002C01DD491EF6D5491E17
:101BD0005CBF002200F8012DF9D5ECE00020194689
:101BE00002AA0A4400E05B1E12F80149491E844221
:101BF000F9D00F2804D10DF10900425C521C425467
:101C0000002904D50198001D02AE5B1C0190591EED
:101C100012D49DF838007218A0F13A07147804F134
:101C200030085FFA88F43A2CA8BFB844491E02F87D
:101C30000189F3D58DF83800286B002840F1B08079
:101C4000591E2963ACE0404649460022002300F0BB
:101C5000F9FD019938BF89F0004947F29750414397
:101C6000694A91FBF2F20192D2F1070204DD40468B
:101C70004946FFF79AFE0AE0524200206349FFF707
:101C800094FE02460B464046494600F04BFF804614
:101C9000662C286BDFF878B106BF019F0A3706274C
:101CA0003F18142FC8BF142730208DF8080089462C
:101CB0000DF1090000E03046002F34DD06464046B5
:101CC000494601F053F801460A4606F1080304208C
:101CD0000A26B2FBF6F606EB860EA2EB4E02303277
:101CE00003F8012C0A22B6FBF2F202EB820EA6EBFD
:101CF0004E063036401E03F8026DE9D1083F002F32
:101D000003F10806D7DD084601F044F802460B4609
:101D10004046494600F094FE00225B4600F088FCF5
:101D200080468946CBE70DF10901401A0DF10906FD
:101D300004E00199491E401E0191761C317830293A
:101D4000F7D0662C02D10199491C03E0652C0CBF29
:101D5000012100212B6BCB189842B8BF431E002BEA
:101D60001ED4834204DAF05C3528A8BF392000DA9B
:101D700030201946721E02EB010800E05B1E18F8C5
:101D80000199491E8145F9D0392802D1705C401C67
:101D90007054002904D50198401C16465B1C019024
:101DA000019800B200901BB29DF8381032462846C8
:101DB00000F034F82EE0C61D002F3FF7BDAE3046D0
:101DC0000DF10901401A009903468842C8BF0B462D
:101DD000002B0DF109063FF52FAF8342BFF6FEAE93
:101DE0000DF10900C15C07297FF7F8AE0F20F6E678
:101DF000CBCCCC0C0000244002FCFFFFFFFF0F8087
:101E00000000E03F0000F07FA08601000000F03FEE
:101E100084D797410FB0BDE8F08F00002DE9F84757
:101E200083B006468A461746984600F0FBF9B8F19B
:101E3000000F406A356B90F8009002DC4FF001080B
:101E4000BFA74AF02000BDF93040662808BF641CD7
:101E500015D0672840F0848014F1040FC0F286800A
:101E6000AC4280F2838096F83800641C010702D4EB
:101E7000A845B8BF454620B22D1A48BF00250FFA25
:101E800084FAF068B169BAF1000F25DC4A1C3023EE
:101E90004354002D03DC96F83800010703D5F068A1
:101EA00000F80290521C15EB0A0FB8BF6C4220B22A
:101EB000441941424445B8BFA046B26171620FFA6D
:101EC00088F5F561F068B3692A463946184400F090
:101ED00043FA641BB462C4E022B29045084417DAA6
:101EE0004246394600F038FAB0694044B061AAEB86
:101EF0000801002D716203DC96F838100A0705D539
:101F0000F16801F80090F069401CF061B562A8E04A
:101F1000394600F021FAB069002D5044A8EB0408BE
:101F200003DC96F838100A0703D5F16801F8009031
:101F3000401CB0610FFA88F08542F368B069B8BF01
:101F4000A8460FFA88F207EB0A01184400F004FAD9
:101F5000B1690FFA88F00144B161281A706280E01B
:101F6000BAF1610F14D14FF0700A16E0A84504DAF7
:101F700096F838100A0758BF45466D1E48BF002521
:101F8000BAF1670F14BF4FF0450A4FF0650A04E03D
:101F9000BAF1410F08BF4FF0500AB169F368481C0D
:101FA000B061002D17F8012B5A5403DC96F8381055
:101FB0000A071BD5F168431CB36101F80090002D9E
:101FC00014DDA8F101080FFA88F039468542F76858
:101FD000B8BFA8460FFA88F2F81800F0BDF9B0694A
:101FE0000FFA88F108446D1AB0617562F068B16942
:101FF0000844002C80F800A003D42B224270811CDE
:1020000003E02D2141706442811C00206A460AE0F1
:1020100023460A2493FBF4F404EB8405A3EB450365
:1020200002F8013B401C24B2002CF1DC012806DC44
:102030004AF02002652A04BF302201F8012B48B97A
:10204000302001F8010B07E0401E1DF8003030334E
:1020500001F8013B0028F7DCF268B0691044091A66
:10206000F16196F8380000F0140010280DD1726963
:10207000B169706A8A18F1698218B06A8A18821880
:10208000706B8242BCBF821A326204B0BDE8F08736
:10209000F8B505460E4617461C46002074B117F8E1
:1020A000011BB068A847B06030B1F06A401CF06214
:1020B0000020641EF3D1F2BD4FF0FF30F2BD0000EE
:1020C0007072696E74665F733A20256E206469735E
:1020D000616C6C6F776564007072696E74663A202B
:1020E00062616420256E20617267756D656E740093
:1020F0007072696E74665F733A2062616420257342
:1021000020617267756D656E740000007072696E93
:1021100074665F733A2062616420256C732061727B
:1021200067756D656E74000000000000000000001F
:102130006E616E004E414E00696E6600494E46006B
:10214000300030B4002513E050F8042BD30744BF0F
:10215000A9F101039A18091F042942F8045BFAD275
:1021600013468C0744BF15809B1CC90748BF1D70D0
:1021700050F8041B0029E7D130BC7047613807E0F4
:1021800005E0A0F161011A2901D201207047413810
:102190001A288041C00F7047A0F10901052901D319
:1021A000202801D10120704700207047A0F1410193
:1021B0001A2938BF203070471B48704770B45368E5
:1021C000D418042B09DA41B1057804F8015B10F842
:1021D000016B16B15B1C491EF3E7536070BC70477E
:1021E00038B514461D4661B1FFF7E8FF61686A6BB8
:1021F000204690476FF00102811A02D0491E01D09B
:1022000001E003E005E00021616032BD6FF00100F4
:1022100032BD4FF0FF3032BDDA6B1047024BDFE7C3
:10222000014BF9E701487047980200206002002046
:102230000278C9B28A421AB11CBF10F8012FF9E71F
:1022400018BF00207047B1F5807F02D34FF0FF30F8
:1022500070470170012070470078401E8041C043E4
:10226000C00F704780B500B906A005490B681BB1C7
:1022700022220021984701E0FEF746FF222002BDFE
:1022800038CD0020636F6E73747261696E7420685C
:10229000616E646C65723A20626164206D6573736F
:1022A0006167650000F10103810704D010F8011B8C
:1022B000820781B1FAD10268A2F10131914311F094
:1022C000803104BF50F8042FF6E709BAB1FA81F162
:1022D00000EBD100401CC01A70478268521C82601B
:1022E000426832B10268531C036011704168491E94
:1022F00041607047C9B2830706D0521E22D310F83E
:10230000013B9942F7D11FE0083A13D302F10402CE
:1023100041EA012141EA014150F8043B121F21BF6B
:102320004B40A3F1013C2CEA030C1CF0803FF3D09E
:10233000C9B2001F083210F8013B521E28BF91EAB3
:10234000030FF8D818BF0120401E704780B5FFF773
:1023500033FF006C02BD000062B38B0708D0521E31
:1023600011F8013B00F8013B00F024808B07F6D107
:10237000830740F0208000BF103A07D330B4B1E8A3
:102380003810103AA0E83810F9D230BC530724BFF7
:10239000B1E80810A0E8081044BF51F8043B40F829
:1023A000043BD20724BF31F8022B20F8022B44BF94
:1023B0000B7803707047121F17D35B0009D151F8D7
:1023C000043B20F8023B1B0C121F20F8023BF6D204
:1023D0000BE051F8043B00F8013B1B0A20F8023BDC
:1023E0001B0C121F00F8013BF3D238BF121D521E06
:1023F00024BF11F8013B00F8013BF8D870470000FA
:10240000BBBBE1B1B2F5803F80F07E80022A1ED9CD
:102410008C46B1FBF2F102FB11C31B0443EA1043EB
:10242000B3FBF2FC02FB1C3380B240EA0343B3FB74
:10243000F2F002FB103240EA0C4000237047022AFF
:1024400005D98446B0FBF2F002FB10C270474AB1D6
:1024500005D100F0010249085FEA30007047002210
:102460000023704700F0A4BC0B00020000210020F4
:102470007047904271EB030CF6D3B3F5803F2FD237
:10248000F0B5B3FA83F7B1FA81F4A7F10F0E3D1B53
:102490005340CEF1200602FA0EF2F3415340B5F15B
:1024A0000F0746D80F3C2C444140C4F12006A04001
:1024B000F1414140B1FBF3F603FB1611A2FB0645C7
:1024C000001BA94102D2761E8018594180EA010200
:1024D00021FA0EF362FA0EF200215A403046F0BDA6
:1024E00030B4B1FBF3FC03FB1C11A2FB0C45001B39
:1024F000A94103D2ACF1010C8018594130BC02460D
:102500000B46604600217047B2F1807F65D3F0B57D
:10251000B2FA82F7B1FA81F4C7F10F063D1B22FA35
:1025200006F307F1110EF24120355A40B5F10F07BD
:10253000B8D94140C4F12006A040F1414140B1FB6F
:10254000F3FC03FB1C11A2FB0C45001BA94103D2A9
:10255000BCF1010C801859410F2F12D30F3FC90352
:1025600041EA5041B1FBF3F603FB1611A2FB06450D
:10257000D4EBC030A94102D2761E8018594146EAF8
:10258000CC3C07B34140C7F12006B840F14141407F
:10259000B1FBF3F603FB1611A2FB0645001BA94194
:1025A00002D2761E8018594180EA010221FA0EF308
:1025B000C7F1200462FA0EF20CFA07F05A402CFA26
:1025C00004F13043F0BD80EA010221FA0EF300214C
:1025D00062FA0EF260465A40F0BD8C46B1FBF2F151
:1025E00002FB11C31B0243EA1063B3FBF2FC02FBC4
:1025F0001C331B024CEA002043EA1063B3FBF2FCDD
:1026000002FB1C331B024CEA002043EA1063B3FBBD
:10261000F2FC02FB1C331B024CEA002043EA10636D
:10262000B3FBF2FC02FB1C324CEA00200023704793
:10263000B0B581EA030C0CF0004C40F2FF7515EACE
:1026400011541DBF15EA1357AC42AF4239E0E419EB
:1026500023EA455343F48013C90241F0004141EAA3
:10266000505EC7021100A7FB020200284FF00000D5
:10267000EEFB01204FF00001E3FB072118BF42F001
:102680000102401800214941E3FB0E01A4F58064DA
:102690000F0302D252004041494154F101046CDD64
:1026A000470872F1004250F1000051EB0451A1F5CE
:1026B00080115CBF41EA0C01B0BD4CEA055100201D
:1026C000B0BD05EA1357AC4214BFAF4241E050EA37
:1026D000410E1CBF52EA430E02E061460020B0BD2D
:1026E00024423C441BD15FEA070EF6D0090302BF27
:1026F00001460020AEF1140EB1FA81F7AEEB0704EB
:1027000001FA07FE0C37C7F1200100FA07F7C840AD
:102710004EEA000E23EA455343F48013A2E733F058
:102720000043B3FA83F704BFB2FA82FE77440B3F4B
:10273000E41BB7F1200E2FBF02FA0EF3BB40C7F126
:10274000200E22FA0EFE38BF43EA0E03BA40641C84
:1027500082E750EA410E14BF52EA430E6FF00001C7
:102760004FF4001717EB430F8ABF194617EB410FC1
:10277000B5E74CEA05510020B0BDD4F10104B4F135
:1027800020070FDAC4F12007520828BF42F00102E7
:1027900010FA07F501FA07F7E1BF2A43E040384392
:1027A000E1400FE0352C98DCC7F1200452EA4002EA
:1027B00020FA07F218BF42F0010231FA07F0A140F7
:1027C0000A43002172F1004250F1000051EB0C016C
:1027D000B0BD000010B5144600F002F8226010BD34
:1027E000C1F30A5343B14A0012F5001F28D2A3F2E5
:1027F000FE32A1EB0251704750EA410C20D001F0AB
:10280000004C31EA0C01B1FA81F204BFB0FA80F356
:10281000D2180B3AB2F120032CBF00FA03F1914019
:1028200041EA0C013EBFC2F1200C20FA0CF319431F
:102830009040524240F2FD33D21A01EB03517047EF
:10284000002270474FF4001C1CEB410F94BF1CEB9F
:10285000430F09E041EA030C50EA4C0C52EA0C0C1D
:1028600003D2994208BF9042704714BF8B42824204
:10287000704700004FF4001C1CEB410F94BF1CEB91
:10288000430F09E041EA030C50EA4C0C52EA0C0CED
:1028900003D28B4208BF8242704714BF99429042D4
:1028A00070470000124254D440F2FF7C1CEA1153DE
:1028B0000FD0634531D09B1863453CBF01EB0251FB
:1028C000704701F0004141EA0C510020AFF3008055
:1028D000704750EA410320D001F0004C91EA0C010E
:1028E0001CD0B1FA81F30B3B9A420DD9D21A994010
:1028F00051EA0C01C3F1200C20FA0CFC6144984011
:10290000531C40F2FF7CD7E7914041EA0C01C2F131
:10291000200C20FA0CF3194390407047B0FA80F372
:102920001533202BE0D3202AEED3203A203B9A42C5
:1029300009D9D21A00FA03F141EA0C010020531C14
:1029400040F2FF7CB8E700FA02F141EA0C010020F6
:102950007047524240F2FF7C1CEA11530DD0634590
:10296000DBD0B2EB030C3CBFA1EB025170470CF182
:10297000010221EA035141F4801150EA410CCCD00C
:1029800001F0004C352A27DC30B481EA0C01B2F1A9
:10299000200309DAC2F12003044601FA03F5D0400E
:1029A0002843D1409C400CE0C3F12002450020FAAE
:1029B00003F418BF44F0010421FA03F091400C43E2
:1029C000002174F1004550F1000051EB0C0124424C
:1029D00030BC7FF47BAF70476146002076E7000093
:1029E000C1F30A5340F2FE329B1A14DDD3F12003E7
:1029F0004FEAE17208DDC90241EA505141F000405E
:102A0000D84080185040704703F2E13010B1D243F3
:102A100082F000407047002070470000C11768B185
:102A20004840401AB0FA80F29040D21CC907C2F563
:102A3000846241EA025202EBD02140057047000057
:102A400070B44FF0004591EA030F40F1BB816B4039
:102A5000841A71EB030603D2001BB14112197341B2
:102A60004FF4001C1CEB410F34BF7CEB430442E0ED
:102A70000C0DA4EB1356352E4FDC45EAC323DB0ABD
:102A800045EAC121C912B6F120050DDD63FA05F64C
:102A9000EB4086EA0305124218BF45F00105C01855
:102AA00051F100010CD213E062FA06F5F2405540F4
:102AB000F3415A40B340F3405A408018594107D37C
:102AC00049085FEA30005FEA350528BF45F0010597
:102AD00001F58011420875F1004250F1000041EB10
:102AE00004514E0016F5001F70BC38BF704700201F
:102AF000090D090570471CEB410F10D252EA43063D
:102B00000BD0BCEB410F05D80C0DAB43661E342E29
:102B1000B6DD02E0AB438018594170BC704770BC11
:102B200070470000F0B540F2FF7581EA030C0CF02D
:102B3000004C15EA11541DBF15EA1357AC42AF42C1
:102B4000E5E0BC41C1F31301C3F31303801A9941BB
:102B500043F4801304D2641E400049418018594157
:102B6000C90241EA5051B1FBF3F603FB1611A2FB77
:102B70000675D7EBC020A94102D2761E80185941B4
:102B8000C90241EA5051B1FBF3FE03FB1E11A2FB47
:102B90000E75D7EBC020A94103D2AEF1010E80180B
:102BA0005941890241EA9051760546EA8E2EB1FBE1
:102BB000F3F603FB1611A2FB0675D7EB8020A941A3
:102BC00002D2761E80185941C90241EA50514EEA9C
:102BD000060EB1FBF3F603FB1611A2FB0675D7EB4D
:102BE000C020A94102D2761E80185941C90241EA8B
:102BF0005051B1FBF3F703FB1711A2FB0735D3EBE1
:102C0000C020A94167F100070CBF004247F001074F
:102C100066F3D5274FEA1E31B80814F5806412DD3B
:102C2000BD0775F1004250EB0E5051EB045111F508
:102C3000801F5CBF41EA0C01F0BD4CF07F6141F0A8
:102C4000E0410020F0BDBD076D0840EA0E5041F4A0
:102C50008011D4F10104B4F120060ADAC4F120068F
:102C60000200E04001FA06F3E1401843B240154388
:102C70000EE0342C13DCC6F1200445EA40056D0853
:102C800020FA06F2154321FA06F0A1400D43002177
:102C900075F1004250F1000051EB0C01F0BD002035
:102CA0005FEA0C01F0BDCFB992185B41B3FA83F72C
:102CB00004BFB2FA82F6BF190B3FB7F120062FBF4F
:102CC00002FA06F3BB40C7F1200622FA06F638BF27
:102CD0003343BA401CB1E419641E33E77F4231F03C
:102CE0000041B1FA81F404BFB0FA80F6A4190B3C9C
:102CF000B4F120062FBF00FA06F1A140C4F120066E
:102D000020FA06F638BF3143A0403C1B1AE7AC421C
:102D10001ABF05EA1357AF4212E050EA41061CBF42
:102D200052EA4306BFE750EA4107304661461CBFFE
:102D300041EA0551F0BD52EA430C08BFC143F0BD62
:102D400000204FF4001616EB410F98BF16EB430F0F
:102D500008BF16EB410F24BFC14305E016EB430F3C
:102D60000CBF61464CEA0551F0BD0000400D49180A
:102D700040EA81200CD2490DA1F58061491C40F048
:102D8000004005DBD1F11F0154BFC840C017704798
:102D900000207047014648B1B0FA80F18840C91C54
:102DA000C1F58461090501EBD021400570470000A1
:102DB0007047000070B44FF0004591EA030F7FF5B3
:102DC00047AE6B40841A71EB030604D26E40001BC1
:102DD000B141121973414FF4001C1CEB410F34BF79
:102DE0007CEB430683E00C0DA4EB1356362E00F368
:102DF0007C80012E45EAC32341DC43EA525312BFD3
:102E0000D20292025B08240545EAC12141EA5051F1
:102E1000D2EBC020994125D407D1B0FA80F610FA40
:102E200006F162D00020203608E0B1FA81F6B14008
:102E3000C6F1200220FA02F21143B0404FEAF474C6
:102E4000B4EB465434F001064FEA74040AD8D6F5C0
:102E50000016760D04F00044F04061FA06F250408E
:102E6000F1404840C00A40EA415021F0004128BFEB
:102E70005FEA500550F1000044EBD12135E0DB0A58
:102E800045EAC121C90AB6F120050EDD42EA024237
:102E9000120CC5F1200603FA06F6EB4042EA0605DD
:102EA0006D42984161F100010DE062FA06F5F240D1
:102EB000554063FA06FC82EA0C02F3405A406D4228
:102EC000904161EB030111F4801F05D1641E62057E
:102ED00002D06D004041494121F48011430875F151
:102EE000004350F1000041EB045170BC70471CEBF3
:102EF000410F15D223F0004352EA43060BD04FEAAC
:102F00004C0CBCEB410F04D80C0D661E342EB7DD03
:102F1000EBE7801A994150EA410608BF0021E4E737
:102F200008BF1CEB430F28BF6FF00001DDE7000076
:102F300010B50400002C01D1012033E0A069002865
:102F4000FFD194F83900002805D1002084F838001A
:102F5000200000F0B1FD242084F839002068C0680A
:102F600030F400502168C860200000F085FB206824
:102F7000006930F49040216808612068406930F0B1
:102F80002A00216848612068C06850F40050216818
:102F9000C8600020E063202084F83900202084F8F5
:102FA0003A00002010BD2DE9FC4705000C0016007A
:102FB0001F005FF0000A95F83900202860D1002C2E
:102FC00003D0300080B2002801D1012059E095F8EB
:102FD0003800012801D1022053E0012085F8380093
:102FE0000020E863212085F8390000F0FBFF8146CE
:102FF000AE84EE84E88C00282FD0E88C401EE88454
:10300000A868B0F5805F18D100974B460022802158
:10301000280000F035FA002801D0032031E0A04656
:10302000B8F80000C005C00D29684860286900286C
:1030300001D1A41CDEE7641CDCE700974B460022AC
:103040008021280000F01CFA002801D0032018E09D
:10305000207829684860641CCCE700974B46002222
:103060004021280000F00CFA002801D0032008E0DD
:10307000202085F83900002085F83800002000E085
:103080000220BDE8F68773B50400150094F83900F6
:10309000202841D10198002803D0280080B20028C0
:1030A00001D1012039E094F83800012801D1022033
:1030B00033E0012084F8380001982062A584E5847B
:1030C0000020E063212084F839000FF2C520216B35
:1030D000C8630FF2F120216B08640FF24D30216BB1
:1030E000C8640020216B086501AE2B009BB22068EC
:1030F000021D3168206B00F0ECFF7FF0400021687A
:103100000860002084F838002068406950F0800092
:1031100021684861002000E0022076BD73B50400FC
:10312000150094F83A00202851D10198002803D0C6
:10313000280080B2002801D1012049E094F838002D
:10314000012801D1022043E0012084F838000198D1
:10315000A062A5850020E063222084F83A000FF2E7
:103160007520616BC8630FF2B120616B08640FF2C8
:10317000B920616BC8640020616B086501AE2B004B
:103180009BB232682068011D606B00F0A2FF002036
:1031900000902068006800902068406800900098C7
:1031A000002084F838002068C06850F480702168DE
:1031B000C8602068406950F00100216848612068BB
:1031C000406950F0400021684861002000E0022082
:1031D00076BD70B50600002031684C69E40914F032
:1031E000010496F83910212910D1002C0ED0306836
:1031F000406930F0800031684861306B002802D0AF
:10320000306B00F0B2FF300000F071F930684569B2
:10321000AD0915F0010596F83A00222810D1002DCD
:103220000ED03068406930F0400031684861706B02
:10323000002802D0706B00F098FF300000F061F9B8
:10324000002070BD2DE9F84306003068076830683B
:10325000D0F80C803068D0F814900020002517F0CA
:103260000F04002C08D1B80606D55FEA886003D5A4
:10327000300000F0AAF988E0002C74D05FEAC97031
:1032800002D418F4907F6ED017F00100C0B200286D
:1032900006D05FEAC85003D5F06B50F00100F06330
:1032A000780708D519F00100C0B2002803D0F06BF0
:1032B00050F00200F063B80708D519F00100C0B261
:1032C000002803D0F06B50F00400F063380708D5F5
:1032D00019F00100C0B2002803D0F06B50F00800D4
:1032E000F063F06B00283DD0B80605D55FEA886032
:1032F00002D5300000F069F930684069800910F0AB
:1033000001000500F06B000701D4002D25D030002E
:1033100000F0F7F83068406940061AD53068406917
:1033200030F0400031684861706B00280DD00FF21A
:10333000F510716B0865706B00F065FF002811D007
:10334000706B716B096D88470CE0300001F0F8F884
:1033500008E0300001F0F4F804E0300001F0F0F88B
:103360000020F06311E0380606D55FEA086003D557
:10337000300000F0E3F808E0780606D55FEA486020
:1033800003D5300000F011F9FFE7BDE8F18300003C
:1033900038B50400A56B20680068C0050ED4002075
:1033A000E8842868406930F080002968486128680E
:1033B000C06850F040002968C86002E0280001F0B1
:1033C000C0F831BD38B50400A56B280001F0BAF88B
:1033D00031BD000038B50400A56B20680068C00549
:1033E00016D40020E8852868C06830F48070296809
:1033F000C86028684069400840002968486128681A
:10340000406930F0400029684861202085F83A0082
:10341000280001F098F831BD38B50400A56B2800EC
:1034200001F092F831BD0000F8B506000020B76B3E
:1034300039684C69E40914F0010497F8391021291E
:1034400006D1002C04D00020F884380000F04FF89A
:1034500038684569AD0915F0010597F83A0022284A
:1034600006D1002D04D00020F885380000F049F87E
:10347000F86B50F01000F863380001F061F8F1BD0E
:103480002DE9F04105000E0090461F00069C2868BB
:1034900000683040B04201D1012000E000204146E8
:1034A000C9B2884220D114F1010FF0D0002C04D011
:1034B00000F098FDC01B8442E9D22868C06830F44F
:1034C000D0702968C86028684069400840002968B1
:1034D0004861202085F83900202085F83A00002036
:1034E00085F83800032000E00020BDE8F081016885
:1034F000C96831F0C0010268D160202180F839101C
:1035000070470168C96831F490710268D160016840
:1035100049694908490002685161202180F83A1040
:103520007047000038B50400A56B0020E885002036
:10353000E884280001F004F831BD0000010091F892
:10354000390021282FD18868B0F5805F11D1086A31
:1035500002001088C005C00D0B685860086900287B
:1035600003D1086A801C086209E0086A401C0862EE
:1035700005E0086A431C0B6200780B685860C88C31
:10358000401EC88480B200280BD10868C06830F0A3
:1035900080000B68D8600868C06850F040000B6875
:1035A000D860002000E00220704710B504002068B9
:1035B000C06830F040002168C860202084F83900DD
:1035C000200000F0BEFF002010BD38B5040094F8C4
:1035D0003A0022284ED1A068B0F5805F16D1A06ACB
:1035E00005002069002808D120684068C005C00D8A
:1035F0002880A06A801CA0621AE02068406800F061
:10360000FF002880A06A401CA06211E02069002809
:1036100006D1A06A411CA16221684968017007E0D7
:10362000A06A411CA1622168496811F07F01017004
:10363000E08D401EE08580B2002819D12068C06866
:1036400030F020002168C8602068C06830F48070C5
:103650002168C860206840694008400021684861CE
:10366000202084F83A00200000F06DFF002002E0E6
:10367000002000E0022032BD2DE9F843040020685C
:10368000016931F44051E068014320680161A56897
:103690002069054360690543E06905432068C16806
:1036A000AE48014029432068C1602068416931F477
:1036B0004071A069014320684161E069B0F5004FA5
:1036C00040F0A6802068A649884203D02068A5491A
:1036D00088424ED100F0E7FF060000F0E4FF07004B
:1036E00000F0E1FF804600F0DEFF814600F0DBFFE6
:1036F00064211922564363685B00B6FBF3F364262A
:10370000B3FBF6F3574366687600B7FBF6F602FBA9
:1037100008F867687F00B8FBF7F75FF0640CB7FB49
:10372000FCF701FB1766F60032366427B6FBF7F6A6
:10373000760016F4F87616EB031602FB09F96368B7
:103740005B00B9FBF3F302FB00F260684000B2FBE0
:10375000F0F06422B0FBF2F001FB1031C80032300F
:103760006421B0FBF1F010F0070086192068866034
:10377000F1E000F08DFF060000F08AFF070000F086
:1037800087FF804600F084FF814600F081FF6421BE
:103790001922564363685B00B6FBF3F36426B3FB60
:1037A000F6F3574366687600B7FBF6F602FB08F8B7
:1037B00067687F00B8FBF7F75FF0640CB7FBFCF7B6
:1037C00001FB1766F60032366427B6FBF7F6760083
:1037D00016F4F87616EB031602FB09F963685B0032
:1037E000B9FBF3F302FB00F260684000B2FBF0F0BB
:1037F0006422B0FBF2F001FB1031C80032306421CA
:10380000B0FBF1F010F00700861920688660A2E096
:1038100020685349884203D02068524988424DD1DC
:1038200000F041FF060000F03EFF070000F03BFF04
:10383000804600F038FF814600F035FF64211922F0
:10384000564363689B00B6FBF3F36426B3FBF6F3C1
:1038500057436668B600B7FBF6F602FB08F86768E0
:10386000BF00B8FBF7F75FF0640CB7FBFCF701FB98
:103870001766360132366427B6FBF7F616F0F00607
:1038800016EB031602FB09F963689B00B9FBF3F31F
:1038900002FB00F260688000B2FBF0F06422B0FB33
:1038A000F2F001FB1031080132306421B0FBF1F07D
:1038B00010F00F008619206886604CE000F0E8FEEA
:1038C000060000F0E5FE070000F0E2FE804600F092
:1038D000DFFE814600F0DCFE642119225643636856
:1038E0009B00B6FBF3F36426B3FBF6F3574366681D
:1038F000B600B7FBF6F602FB08F86768BF00B8FB36
:10390000F7F75FF0640CB7FBFCF701FB17663601B5
:1039100032366427B6FBF7F616F0F00616EB031600
:1039200002FB09F963689B00B9FBF3F302FB00F2A9
:1039300060688000B2FBF0F06422B0FBF2F001FBA3
:103940001031080132306421B0FBF1F010F00F00AB
:10395000861920688660BDE8F1830000F369FFFFE7
:10396000001001400014014080B5DFF8EC05DFF8DD
:10397000EC1501605FF4E1314160002181600021BC
:10398000C160002101610C214161002181610021A0
:10399000C161FFF7CDFA002801D001F027F801BD81
:1039A00080B5DFF8BC05DFF8BC1501605FF4E131DC
:1039B0004160002181600021C160002101610C2172
:1039C0004161002181610021C161FFF7B1FA002846
:1039D00001D001F00BF801BD80B5DFF88C05DFF8F0
:1039E0008C1501605FF4E1314160002181600021AC
:1039F000C160002101610C21416100218161002130
:103A0000C161FFF795FA002801D000F0EFFF01BD7A
:103A100080B5DFF85C05DFF85C1501605FF4E1312B
:103A20004160002181600021C160002101610C2101
:103A30004161002181610021C161FFF779FA00280D
:103A400001D000F0D3FF01BD80B5DFF82C05DFF811
:103A50002C1501605FF4E13141600021816000219B
:103A6000C160002101610C214161002181610021BF
:103A7000C161FFF75DFA002801D000F0B7FF01BD7A
:103A800080B5DFF8FC04DFF8FC1401605FF4E1317D
:103A90004160002181600021C160002101610C2191
:103AA0004161002181610021C161FFF741FA0028D5
:103AB00001D000F09BFF01BDF8B586B00400684658
:103AC000142100F095FF2068DFF8901488422AD175
:103AD00000200590DFF8B004016851F40021016076
:103AE000006810F400200590059800200590DFF88C
:103AF0009C04016851F004010160006810F00400AA
:103B0000059005984FF4406000900220019001203C
:103B1000029003200390082004906946DFF87004A7
:103B200000F06AFF16E22068DFF83814884240F09F
:103B30008E8000200590DFF85004016851F4801158
:103B40000160006810F48010059005980020059031
:103B5000DFF83804016851F004010160016811F0D8
:103B600004010591059900210591016851F00801B2
:103B70000160006810F00800059005984FF480502F
:103B80000090022001900120029003200390082061
:103B900004906946DFF8F80300F02EFF042000903F
:103BA000022001900120029003200390082004903D
:103BB0006946DFF8E00300F01FFFDFF8DC53DFF8B1
:103BC000DC0328605FF000666E600020A8600020C3
:103BD000E8604FF480672F61002068610020A861D1
:103BE0004FF48070E861002028620020686228009D
:103BF00000F0FEF9002801D000F0F8FE6563AC6328
:103C0000DFF89C53DFF89C0328606E604020A860BA
:103C10000020E8602F61002068610020A86100207A
:103C2000E8610020286200206862280000F0E0F9C6
:103C3000002801D000F0DAFE2563AC6300220121E8
:103C4000352001F0A1F8352001F0B3F882E12068B9
:103C5000DFF81813884273D100200590DFF848037D
:103C6000016851F010010160006810F0100005902B
:103C7000059800200590DFF81403016851F0010158
:103C80000160006810F00100059005984FF4C060D5
:103C90000090022001900120029003200390072051
:103CA00004906946DFF8040300F0A6FEDFF8005335
:103CB000DFF8000328605FF000666E600020A860F7
:103CC0000020E8604FF480672F61002068610020C9
:103CD000A8614FF48070E8610020286200206862CB
:103CE000280000F085F9002801D000F07FFE656310
:103CF000AC63DFF8C452DFF8C40228606E60402075
:103D0000A8600020E8602F61002068610020A861A1
:103D10000020E8610020286200206862280000F08E
:103D200067F9002801D000F061FE2563AC63002232
:103D30000121252001F028F8252001F03AF809E1B9
:103D400020688C4988426AD1002005908E4801681D
:103D500051F400310160006810F4003005900598BE
:103D6000002005908948016851F008010160006851
:103D700010F0080005900598602000900220019046
:103D80000120029003200390072004906946814897
:103D900000F032FE8A4D8B4828605FF000666E604E
:103DA0000020A8600020E8604FF480672F610020A9
:103DB00068610020A8610020E861002028620020DE
:103DC0006862280000F014F9002801D000F00EFE0F
:103DD0006563AC637C4D7D4828606E604020A860C0
:103DE0000020E8602F61002068610020A8610020A9
:103DF000E8610020286200206862280000F0F8F8DE
:103E0000002801D000F0F2FD2563AC6300220121FF
:103E1000262000F0B9FF262000F0CBFF9AE02068B2
:103E2000564988426CD1002005905748016851F4EA
:103E300080210160006810F4802005900598002022
:103E400005905248016851F002010160006810F0CD
:103E50000200059005984FF4406000900220019008
:103E600001200290032003900720049069465848DF
:103E700000F0C2FD574D584828605FF000666E6044
:103E80000020A8600020E8604FF480672F610020C8
:103E900068610020A8614FF48070E861002028620A
:103EA00000206862280000F0A3F8002801D000F08C
:103EB0009DFD6563AC63494D494828606E604020B4
:103EC000A8600020E8602F61002068610020A861E0
:103ED0000020E8610020286200206862280000F0CD
:103EE00087F8002801D000F081FD2563AC63002233
:103EF0000121272000F048FF272000F05AFF29E089
:103F000020682049884225D1002005902648016874
:103F100051F020010160006810F020000590059824
:103F2000002005901948016851F004010160006803
:103F300010F0040005900598C02000900220019028
:103F40000120029003200390082004906946104845
:103F500000F052FD07B0F0BD94C90020004C0040B5
:103F6000D4C900200050004014CA002000100140B5
:103F700054CA00200044004094CA00200048004079
:103F8000D4CA0020001401404038024030380240BA
:103F900000080240000C02409CC400201060024057
:103FA000FCC40020B86002404438024000000240D7
:103FB0005CC5002040640240BCC50020B8640240DB
:103FC0001CC60020886002407CC60020A060024021
:103FD00000040240DCC60020286002403CC70020EC
:103FE0005860024001480068704700BF20CD0020A3
:103FF00070B504000026FFF7F5FF0500002C01D185
:10400000012065E0606A0028002084F83400022066
:1040100084F8350020680068400840002168086086
:1040200020680068C0070BD5FFF7DCFF401B06289F
:10403000F6D320206065032084F83500032047E094
:1040400020680168DFF8500401406268A0680243FC
:10405000E06802432069024360690243A0690243A9
:10406000E0690243206A02431143606A042803D1D5
:10407000E26A206B024311432068016020684669B0
:10408000F608F600606A0643606A042810D1A06A48
:104090000643E06A00280BD0200000F003FA002855
:1040A00006D040206065012084F8350001200FE033
:1040B00020684661200000F0D5F901003F22E06D44
:1040C00082408A6000206065012084F8350000206D
:1040D00070BD2DE9F84304000D0016001F005FF0CD
:1040E0000008D4F8589094F83400012801D1022037
:1040F00039E0012084F8340094F8350001282BD1F0
:10410000022084F83500002060653B003200290061
:10411000200000F090F93F21E06D8140C9F80810BF
:104120002068006850F01600216808602068406927
:1041300050F0800021684861206C002805D020687C
:10414000006850F00800216808602068006850F09E
:1041500001002168086004E0002084F83400022097
:1041600080464046C0B2BDE8F28370B50400A56D3C
:10417000FFF738FF060094F83500022806D08020AB
:104180006065002084F8340001203BE0206800686E
:1041900030F01600216808602068406930F0800027
:1041A00021684861206C002802D1A06C002805D04D
:1041B0002068006830F00800216808602068006806
:1041C000400840002168086020680068C0070ED5DC
:1041D000FFF708FF801B0628F6D32020606500202B
:1041E00084F83400032084F8350003200AE03F21DE
:1041F000E06D8140A960002084F83400012084F83B
:104200003500002070BD010091F83500022803D070
:1042100080204865012009E0052081F83500086804
:104220000068400840000A68106000207047F8B538
:10423000040000200090DFF8640200684FF416517B
:10424000B0FBF1F5A66D37680821E06D11FA00F0BA
:10425000074210D02068006840070CD5206800682D
:1042600030F0040022681060E06D8140B160606D44
:1042700050F001006065E06D3900C140C8070BD502
:1042800020684069000607D50121E06D8140B160DA
:10429000606D50F0020060650421E06D11FA00F0DD
:1042A00007420AD020680068800706D5E06D81408B
:1042B000B160606D50F0040060651021E06D11FA8E
:1042C00000F007422CD020680068000728D5E06D78
:1042D0008140B16020680068400311D52068006803
:1042E000000306D4206C00281AD02000216C8847D7
:1042F00016E0A06C002813D02000A16C88470FE0C6
:1043000020680068C00505D42068006830F0080007
:1043100021680860206C002802D02000216C8847AA
:104320002021E06D11FA00F007425FD0206800689C
:10433000C0065BD5E06D8140B16094F8350005287A
:1043400028D12068006830F01600216808602068D5
:10435000406930F0800021684861206C002802D15B
:10436000A06C002805D02068006830F008002168A3
:1043700008603F21E06D8140B160002084F8340086
:10438000012084F83500206D002802D02000216D26
:1043900088474FE020680068400311D52068006816
:1043A000000306D4606C002820D02000616C884790
:1043B0001CE0E06B002819D02000E16B884715E075
:1043C00020680068C0050BD42068006830F0100039
:1043D00021680860002084F83400012084F835004A
:1043E000E06B002802D02000E16B8847606D002858
:1043F00020D0606DC00717D5052084F835002068EF
:10440000006840084000216808600098401C009047
:10441000854203D320680068C007F6D4002084F8E2
:104420003400012084F83500E06C002802D0200020
:10443000E16C8847F1BD30B40468246834F480240A
:1044400005682C60046863608468402C04D10468AB
:10445000A2600468E16003E00468A1600468E260AF
:1044600030BC7047017801F0FF0110391822B1FB10
:10447000F2F10B4A525CC265042905D30268920A24
:104480009202121D826503E00268920A920282651E
:10449000806D7047000000003F8010F04402002053
:1044A000F0AF000810B402000020936A916900295F
:1044B00016D1002B05D0022B03D008D3032B0DD02F
:1044C0000DE0D16AC90101D50121080035E0D16AAA
:1044D000B1F1C07F01D1012108002EE02DE02CE0D8
:1044E0009169B1F5005F18D1002B05D0022B03D0E4
:1044F00005D3032B09D00FE0012108001DE0D16A8C
:10450000C90101D50121080017E0D16AB1F1C07FCE
:1045100001D10121080010E00FE019000029022953
:1045200002D9C91E03D008E00121080005E0D16AC4
:10453000C90101D501210800FFE7C0B210BC7047D6
:104540007047704770477047704700002DE9F04191
:1045500004000D00002C01D1012094E0574F386871
:1045600010F00F00A84207D23D70386810F00F001D
:10457000A84201D0012086E02078800716D5207857
:10458000400704D54E48016851F4E051016020789D
:10459000000704D54A48016851F460410160484968
:1045A0000A6832F0F002A06802430A602078C0076F
:1045B00038D56068012805D142480068800313D4CB
:1045C000012060E06068022802D06068032805D1FD
:1045D0003C480068800107D4012054E03948006855
:1045E000800701D401204EE0DFF8D480D8F8001015
:1045F0008908890060680143C8F80010FFF7F2FCE1
:104600000600D8F8000010F00C006168B0EB810FD4
:1046100008D0FFF7E7FC801B41F289318842F0D3D4
:10462000032030E0386810F00F00854207D23D705B
:10463000386810F00F00A84201D0012023E0207854
:10464000400706D51E490A6832F4E052E06802438A
:104650000A602078000707D51948016831F46041E5
:10466000226951EAC201016000F034F81649144A87
:104670001268C2F30312895CC84014490860002024
:1046800000F0B4FB0020BDE8F081104800687047DE
:1046900080B5FFF7FAFF0E49094A1268C2F3822279
:1046A000895CC84002BD80B5FFF7EFFF0849044AA6
:1046B0001268C2F34232895CC84002BD003C02402D
:1046C00008380240003802402CAF000844020020A5
:1046D000F8AF00082DE9F04100240025002600274E
:1046E0001F48006810F00C00002804D0042804D0F3
:1046F000082804D031E01B4830E01B482EE0DFF8EA
:104700006C80D8F8000010F03F000400D8F80000DA
:1047100040020CD5D8F80000C0F388101249A1FB64
:10472000000122000023FDF76BFE05000BE0D8F826
:104730000000C0F388100B49A1FB000122000023F8
:10474000FDF75EFE0500D8F80000C0F30140401CF4
:1047500040000600B5FBF6F000E00248BDE8F0813D
:10476000083802400024F40040787D0104380240FB
:1047700093494A7848686423B0FBF3F082184A7082
:104780000A7848783C2390FBF3F082180A70487846
:104790003C2290FBF2F302FB13004870486864224D
:1047A000B0FBF2F302FB13004860704780B500F0E5
:1047B00043FB00F041F800F059FB00F00BFC00F067
:1047C0006DFC00F01BFDFFF7CFF8FFF7E9F8FFF7EE
:1047D00003F9FFF71DF9FFF737F9FFF751F97949A9
:1047E000794800F075FD00F0A1FD00F0DBFD00F060
:1047F000A1FF01F06FF801F061F901207349086031
:104800007348012101600121C1600021816000F035
:1048100074FDFFF7ADFF01F063F901F0F0F900F06E
:10482000AFFF00F08BFF01F043FB01F000FC01F053
:1048300089F800F057FFEAE780B592B006A830216A
:1048400000F0D6F801A8142100F0D2F80020009062
:104850006048016851F080510160006810F080509C
:1048600000900098002000905B48016851F480415E
:104870000160006810F480400090009802200690CB
:104880000120099010200A9002200C9000200D9029
:1048900008200E90A8200F90022010900420119064
:1048A00006A801F0E7FB002801D000F09FF80F20D8
:1048B000019002200290002003904FF4A050049039
:1048C0004FF480500590052101A8FFF73FFE002816
:1048D00001D000F08BF813B000BD38B53C4D28680E
:1048E00001286CD13D4C2068401C20604FF47A7048
:1048F0002168226892FBF0F200FB1210002801D11F
:10490000012028624FF4FA702168226892FBF0F2CD
:1049100000FB1210002803D10121314800F08CF96E
:1049200014202168226892FBF0F200FB121000288C
:1049300001D1012068610A202168226892FBF0F20F
:1049400000FB1210002803D11D484168491C41603A
:1049500005202168226892FBF0F200FB121000286B
:104960000ED10120194908601E480068012801D1B4
:10497000012068600120E861012028610120A86110
:1049800043F698202168226892FBF0F200FB121097
:1049900000280DD113490868002809D101200860BA
:1049A000012210210E4800F03AF90F4801F06EFE86
:1049B00020684EF66021884201DB0020206031BD76
:1049C000B0CC002044CB002014CA002008CD002029
:1049D000BCCB0020403802400070004004CD0020D5
:1049E00000000240E0CB002088AD000870470000C6
:1049F000002201F021BF00002DE9F841002300242E
:104A000000260025102D80F0FD80012717FA05F201
:104A100013000A681A4014009C4240F0F1804A6872
:104A2000022A02D04A68122A1FD12A00D20800EBBB
:104A30008202D2F820C05FF00F0E15F00702D2B24A
:104A400092001EFA02FE3CEA0E0CD1F810E015F0BE
:104A50000702D2B292001EFA02FE5EEA0C0C664613
:104A60002A00D20800EB82021662D0F800C05FF084
:104A7000030E2A00D2B252001EFA02F23CEA020CE5
:104A800091F8048018F003082A00D2B2520018FAF4
:104A900002F858EA0C0CC0F800C04A68012A08D095
:104AA0004A68022A05D04A68112A02D04A68122AA6
:104AB0001BD186682A00D2B252001EFA02F2964337
:104AC000D1F80C802A00D2B2520018FA02F858EA43
:104AD000060686604268AF40BA434F68C7F30017C6
:104AE000AF403A439446C0F804C0C6682A00D2B228
:104AF00052001EFA02FE36EA0E068F682A00D2B273
:104B0000520097403E43C6604A68D20078D50022E2
:104B10000092DFF84821176857F480471760126841
:104B200012F480420092009ADFF834C12A00920801
:104B30005CF822705FF00F0E15F00302D2B2920003
:104B40001EFA02FE37EA0E07464A904201D10026BD
:104B500023E0454A904201D101261EE0434A90429B
:104B600001D1022619E0424A904201D1032614E005
:104B7000404A904201D104260FE03F4A904201D1C1
:104B800005260AE03D4A904201D1062605E03C4A4E
:104B9000904201D1072600E00826F6B215F0030284
:104BA000D2B29200964037432A0092084CF8227005
:104BB000344E3268A243D1F804C05FEACC3C00D541
:104BC00022433260304F3E68A643D1F804C05FEA0A
:104BD0008C3C00D526433E602C4F3A68A243D1F866
:104BE00004C05FEACC2C00D522433A60284F3E68CF
:104BF000A643D1F804C05FEA8C2C00D526433E6062
:104C00006D1CFFE6BDE8F181020010690B009BB24C
:104C1000184201D0012000E00020C0B2704713000C
:104C2000DBB2002B03D00B009BB2836103E00B00CF
:104C30009BB21B048361704743690A0092B2134020
:104C40000A0092B2934204D10A0092B21204826125
:104C500002E00A0092B282617047000044380240CC
:104C600008380140000002400004024000080240F1
:104C7000000C0240001002400014024000180240E4
:104C8000001C0240003C0140043C0140083C014043
:104C90000C3C014010B410F00703DFF830412268EB
:104CA0004FF6FF010A40DFF8281151EA03210A43B9
:104CB000226010BC7047DFF814010068C0F30220C6
:104CC0007047010049B2002909D4012210F01F01E8
:104CD0008A40404903005BB25B0941F823207047DA
:104CE00010B4020052B2002A05D40A013A4B040063
:104CF00064B21A5508E00A01384B040064B214F09B
:104D00000F04234403F8042C10BC704770B4030054
:104D100013F00704D4F10700052801D3042001E0B3
:104D2000D4F10700251D072D01D2002500E0E51E66
:104D3000012616FA00F0401E0140A94016FA05F5BA
:104D40006D1E2A401143080070BC704710B5040066
:104D5000601EB0F1807F01D301200EE0601E20496B
:104D600008600F215FF0FF30FFF7BAFF00201D49F8
:104D7000086007201C490860002010BD10B5040021
:104D80002000FFF787FF10BD2DE9F04104000D0062
:104D900016000027FFF78FFF8046320029004046AB
:104DA000FFF7B4FF0100200040B2FFF799FFBDE814
:104DB000F08110B50400200040B2FFF782FF10BD63
:104DC00010B504002000FFF7C1FF10BD0CED00E09E
:104DD0000000FA0500E100E000E400E018ED00E06A
:104DE00014E000E018E000E010E000E010B504007E
:104DF0004FF47A700D490978B0FBF1F00C4909685D
:104E0000B1FBF0F0FFF7DCFF002801D001200CE03F
:104E1000102C09D2002221005FF0FF30FFF7B4FF11
:104E200004480460002000E0012010BDE0020020E2
:104E3000440200204002002080B50B48016851F474
:104E400000710160016851F480610160016851F4F2
:104E5000807101600320FFF791FF0020FFF7C6FF7C
:104E600001F004FD002002BD003C024070B586B098
:104E700068461421FFF7BCFD0020059050480168EA
:104E800051F010010160016811F0100105910599C0
:104E900000210591016851F020010160016811F0C5
:104EA00020010591059900210591016851F08001CB
:104EB0000160016811F080010591059900210591BB
:104EC000016851F004010160016811F004010591CD
:104ED000059900210591016851F001010160016807
:104EE00011F001010591059900210591016851F02A
:104EF00002010160016811F002010591059900218C
:104F00000591016851F008010160006810F0080087
:104F1000059005982B4E002240213000FFF77FFEC0
:104F2000294C012231212000FFF779FE00220821BF
:104F30002000FFF774FE0C2000900020019001205B
:104F40000290224D69462800FFF756FD4020009050
:104F5000012001900020029000200390694630005B
:104F6000FFF74AFD392000900120019000200290B7
:104F70000020039069462000FFF73EFD4FF40050EB
:104F80000090002001900020029069462800FFF761
:104F900033FD4FF4407000900020019002200290F9
:104FA00069460B48FFF728FD012000900020019082
:104FB0000220029069462800FFF71EFD06B070BD72
:104FC000303802400014024000000240001002404D
:104FD0000004024080B5002000902F48016851F481
:104FE00080010160016811F48001009100990021A5
:104FF0000091016851F400110160006810F4001084
:1050000000900098002200210B20FFF7BDFE0B202E
:10501000FFF7CFFE002200210C20FFF7B5FE0C2089
:10502000FFF7C7FE002200210E20FFF7ADFE0E2085
:10503000FFF7BFFE002200211020FFF7A5FE102081
:10504000FFF7B7FE002200211120FFF79DFE11207F
:10505000FFF7AFFE002200212F20FFF795FE2F2043
:10506000FFF7A7FE002200213820FFF78DFE382031
:10507000FFF79FFE002200213A20FFF785FE3A202D
:10508000FFF797FE002200214620FFF77DFE462015
:10509000FFF78FFE01BD00BF303802401FB56846E4
:1050A0001021FFF7A5FC4D4C4D4820605FF4003007
:1050B00060600020A0600120206101202076002097
:1050C00084F820000020E0624648A0620020E060F2
:1050D0000320E061012084F830000020606120009E
:1050E00001F0E4FB002801D0FFF780FC0B200090CA
:1050F00001200190032002906946200001F0BBFCD2
:10510000002801D0FFF772FC0C20009002200190D3
:105110006946200001F0AFFC002801D0FFF766FCD3
:105120000D200090032001906946200001F0A3FCAF
:10513000002801D0FFF75AFC1FBD38B586B0040027
:1051400001A81421FFF754FC20682549884243D167
:10515000002000902448016851F4807101600068CB
:1051600010F4807000900098002000901F480168A3
:1051700051F004010160006810F0040000900098F4
:105180000E200190032002900020039001A91848EE
:10519000FFF732FC174D1848286000206860002097
:1051A000A8600020E8604FF4806028614FF48050D0
:1051B00068614FF48040A8614FF48070E86100207E
:1051C0002862002068622800FEF712FF002801D044
:1051D000FFF70CFCA563AC6307B030BDF4C700203B
:1051E000002001400100000F4438024030380240E6
:1051F000000802403CC400201064024080B52F48E3
:105200002F49016003214160002181600021C160BC
:105210005FF4002101615FF44011416100210176DA
:1052200001214176002181760021C176002101779C
:105230000121417701F0F2FD002801D0FFF7D6FBF4
:1052400001BD10B586B0040001A81421FFF7D0FB02
:1052500020681B4988422ED100200090194801681F
:1052600051F000710160006810F00070009000982B
:10527000002000901448016851F0010101600068AD
:1052800010F00100009000984FF4C05001900220EF
:10529000029000200390032004900920059001A9AA
:1052A0000A48FFF7A9FB002201211420FFF76CFD3B
:1052B0001420FFF77EFD06B010BD000044CB002097
:1052C0000064004040380240303802400000024094
:1052D00038B505000C00002D02D0280001F08AF836
:1052E00002F0E6FC0E4801F0D1F9002C04D02000B9
:1052F00002F070FE02F094FF31BD10B5094C206839
:10530000002803D001F0B3F800202060064C20688C
:10531000002803D002F087FE0020206010BD0000AE
:1053200090AC0008E0CC0020DCCC002009486521CE
:1053300001606621416067218160C921C160064822
:105340006221016063214160C821C1600121816047
:10535000704700BF7CCC00208CCC0020DFF8B40369
:105360000021C164002101650021416500214163E4
:10537000002181630021C16390ED001A30EE411AD3
:10538000D0ED0D1A31EE211A80ED0D1A90ED011AB3
:1053900030EEC11AD0ED0E1A31EE211A80ED0E1A40
:1053A0007047000080B5DFED260A9FED8C0AFFF7FD
:1053B000D5FF01BDF8B586B004000D00160040F21F
:1053C0007720844203DB40F276210C0004E0DFF812
:1053D0004C138C4200DA0C00854203DB40F276214C
:1053E0000D0004E0DFF834138D4200DA0D00864230
:1053F00003DB40F27620060004E0DFF8200386425B
:1054000000DA060001200090684601218160012138
:105410000161446003950596DFF8FC7269463868BF
:1054200080B202F031FE02A9786880B202F02CFE50
:1054300004A9B86880B202F027FE07B0F0BD0000F2
:105440000AD7A33EF8B52DED0C8B0600B0EE408ACE
:10545000F0EE608A9FED629ADFED629A9FED62AA9C
:10546000DFF8B0723000FDF7D9FA04000D0097EDB7
:10547000020A3AEE000A30EE480A10EE100A02F074
:10548000EDFE41EC100B02F01CFF51EC100B220062
:105490002B00FDF7CDF891F0004102F019FF0AEE64
:1054A000900A3000FDF7BAFA04000D0097ED020AE9
:1054B00039EE800A30EE480A10EE100A02F0CEFEF5
:1054C00041EC100B02F0FDFE51EC100B22002B0002
:1054D000FDF7AEF891F0004102F0FAFE0BEE100A73
:1054E0003000FDF79BFA04000D0097ED020A39EE3B
:1054F000000A30EE480A10EE100A02F0AFFE41EC4E
:10550000100B02F0DEFE51EC100B22002B00FDF719
:105510008FF891F0004102F0DBFE0BEE900A9FED58
:1055200033CADFF8EC11C868012822D18868002846
:105530001FD1D7ED020AB0EE680ADFF8E40102F0ED
:10554000FBFEB0EE40CA9FED2A0AB4EE40CAF1EE6F
:1055500010FA04DB9FED270AB0EE40CA26E09FED6B
:10556000260AB4EE40CAF1EE10FA1FD5B0EE40CADA
:105570001CE0C868002819D18868012816D1B0EE4F
:1055800068CA9FED1B0AB4EE40CAF1EE10FA04DBC4
:105590009FED180AB0EE40CA08E09FED170AB4EE7E
:1055A00040CAF1EE10FA01D5B0EE40CA7AEE8CCACC
:1055B0003BEE0CDA7BEE8CDABDEEED0A10EE102A33
:1055C000BDEECD0A10EE101ABDEEEC0A10EE100A78
:1055D000FFF7F0FEBDEC0C8BF1BD00009CC4E03E7B
:1055E000920A863F920A86BFDB0F49400000000006
:1055F0000100AF430000AF430000AFC370B5454E9C
:1056000096ED0A0AD6ED0D0A30EE200A86ED000A64
:1056100096ED0B0AD6ED0E0A30EE200A86ED010A51
:1056200096ED0C0ADFED390A80EE200A10EE100A22
:1056300002F014FE3B4A3C4BFCF7FAFF04000D005D
:10564000F06B02F00BFE22002B00FDF7B3FB02F023
:105650003FFEB06096ED000AD6ED030A30EE600A18
:1056600010EE100A02F0FAFD304A314BFDF75AFAFB
:1056700002F02EFEB06196ED010AD6ED040A30EE7E
:10568000600A10EE100A02F0E9FD284A284BFDF7E7
:1056900049FA02F01DFEF06196ED020AD6ED050A08
:1056A00030EE600A10EE100A02F0D8FD1F4A204BBF
:1056B000FDF738FA02F00CFE3062D6ED070A96EDDF
:1056C000060A02F0E1FE02F0C9FE51EC100B02F0F6
:1056D000FFFD70623068F06070683061B0687061C2
:1056E00070BD000080B5FFF789FF0949C86801282F
:1056F00002D18868002807D08868012804D1C868CA
:10570000002801D102F042FF01BD00000000344337
:10571000BCCB00209CC700207CCC00208AFDFFFF72
:105720000C000020282D4454FB2109407B14AE4777
:10573000E17A743F582025490870704710B5244815
:105740000021C161C069002818D0204C6068002881
:1057500004D194ED020A207802F0FCFF6068012871
:1057600004D194ED030A207803F01AF86068022847
:1057700004D194ED040A207803F03AF810BD00003B
:1057800070B5134CA06900281DD09FED0F0A114879
:10579000D0ED000A60EE800AFDEEE00A10EE905AAD
:1057A0000D48D0ED000A20EE800ABDEEC00A10EED2
:1057B000106A00230022310009B2280000B203F071
:1057C0003BF80020A06170BD00007A444CCC002062
:1057D000BCCB00200CCD002010CD002090ED0C0A99
:1057E000D0ED0D0A30EE600AD0ED0E0A90ED0F1AE2
:1057F00070EEC10A80EE200A80ED100A90ED100ACA
:10580000D0ED0E0A90ED0C1A00EE601A80ED111A20
:10581000704770B400230A2B14DA0C24844D04FB67
:1058200003F6AE5940F8236004FB03F62E44766875
:1058300041F8236004FB03F42C44A46842F823409D
:105840005B1CE8E770BC704770B52DED028B04005F
:105850000D0016009FED718A00200A2809DA04EB7A
:10586000800191ED000AB8EE400A30EE088A401C33
:10587000F3E7BDEEC80A10EE100A0A2190FBF1F022
:10588000A06294ED0A0AB8EEC00A300003F009F8ED
:10589000BDEEC00A84ED0A0A94ED0A0AB8EEC00A09
:1058A000D4ED100AD4ED118A40EE208AB0EE680AD9
:1058B000280002F0F6FFBDEC028B70BD9FED570A89
:1058C000704700009FED550A704700009FED530A96
:1058D0007047000038B557489FED510A80ED0C0A1B
:1058E00055498163DFED4F0AC0ED0D0A5349C1638D
:1058F000534C9FED4D1A84ED0F1AC4ED0D0A84ED43
:105900000C0ADFED4A1AC4ED0E1A4E4D85ED0F1A42
:10591000C5ED0D0A85ED0C0AC5ED0E1AFFF75EFF09
:105920002000FFF75BFF2800FFF758FF1E224049C9
:10593000454800F0EEFF002803D0444800F0A6FEE2
:10594000FEE731BDF8B5424C206901282BD1394D15
:105950003B4E3C4F3A0031002800FFF75AFF3D4ACA
:105960003D492800FFF770FF85ED0B0A3B4A3C4993
:105970003000FFF769FF86ED0B0A3A4A3A493800D2
:10598000FFF762FF87ED0B0A384DFFF797FF85EDB4
:10599000100AFFF797FF85ED110AFFF797FF85EDD6
:1059A000120A00202061F1BD80B52248C06A02F0D1
:1059B00055FC02000B002E4800F068FE2048C06A2B
:1059C00002F04CFC02000B002A4800F05FFE1D486C
:1059D000C06A02F043FC02000B00274800F056FEAC
:1059E00001BD38B5254C214DA86A02F037FC0200F4
:1059F0000B00200000F04AFEE86A02F02FFC0200D3
:105A00000B00200000F042FE286B02F027FC020091
:105A10000B001B4800F03AFE31BD00000000000002
:105A20003333333FCDCC4C3E0080E44300902545DA
:105A3000CCC100203CC80020007026450000E8438F
:105A4000CCC8002084C80020F4C7002078AC00082F
:105A5000BCCB002078000020300000209000002007
:105A600048000020A8000020600000209CC7002003
:105A7000DCAE0008ECAE0008FCAE00080CAF00087D
:105A80001CAF0008F8B504000D003C4E3068322809
:105A900004DB3B4800F0FAFD32200EE0394F2100D4
:105AA000306807EBC00002F029FF306807EBC00048
:105AB00045603068401C30603068F2BD80B53249C6
:105AC0002AA0FFF7DFFF314929A0FFF7DBFF3049AC
:105AD00028A0FFF7D7FF2F4927A0FFF7D3FF01BD6D
