:020000040800F2
:1000000098DF0020FDBA0008D9AF0008DBAF000878
:10001000DDAF0008DFAF0008E1AF0008000000001E
:10002000000000000000000000000000E3AF000836
:10003000E5AF000800000000E7AF0008E9AF0008E6
:10004000EFBB0008F3BB0008F7BB0008FBBB0008D0
:10005000FFBB000803BC000807BC00080BBC00087D
:100060000FBC000813BC000817BC0008F5AF00085F
:10007000FFAF00081BBC000809B000081FBC000847
:1000800013B000081DB0000823BC000827BC0008FE
:1000900027B000082BBC00082FBC000833BC0008A8
:1000A00037BC00083BBC00083FBC000843BC00084C
:1000B00047BC00084BBC00084FBC000853BC0008FC
:1000C00057BC00085BBC00085FBC000863BC0008AC
:1000D00067BC000831B000084BB0000865B00008EC
:1000E0006BBC00086FBC000873BC000877BC00083C
:1000F0007BBC00087FBC000883BC00087FB0000800
:1001000087BC00088BBC00088FBC000893BC0008AB
:1001100097BC000889B000089BBC00089FBC000881
:10012000A1B00008A3BC0008ABB00008A7BC000841
:10013000ABBC0008AFBC0008B3BC0008B7BC0008EB
:10014000BBBC0008BFBC0008C3BC0008C7BC00089B
:10015000CBBC0008CFBC0008B5B00008D3BC000879
:10016000D7BC0008DBBC0008DFBC0008E3BC00080B
:10017000E7BC0008EBBC0008EFBC00080000000072
:10018000F3BC0008F7BC000800F5E070026891427B
:1001900003D343681A44914202D380680028F5D102
:1001A0007047DFF80817086890B94FF4805048602E
:1001B0004FF480324FF0FF30C86008610420DFF850
:1001C000F0368A604861C3F8BC01DFF8E8060860D1
:1001D0000120704701F1080313F0070F0EBF002341
:1001E000C3F1080303F007031944D21A8161C26006
:1001F00042F001034B60091D4FF0280C41F802C08A
:10020000DFF8A8261369C36170472DE9FC4B074648
:1002100001F1080010F0070F0FBF8946C0F1080078
:1002200000F0070001EB000902F1080111F0070FCF
:1002300006D002F10800C0F1080000F007000244F7
:100240001546A5EB090009EB0306A0EB030B43F0F1
:100250000303C9F80430AE4228BF00F055FF2879E7
:10026000C10758BF00F050FFBBF1100F38BF00F0BE
:100270004BFFB869854208D1F9688B44C7F80CB0C8
:10028000BE614BF00100706051E1786985420AD18E
:10029000B9688B44C7F808B07E614BF0010070600C
:1002A00046F80BB043E1686800F00301012940F013
:1002B000AC80C008C0000190C0081F2839D8AC68C5
:1002C000D5F80C800090454508BF00F01DFFA54201
:1002D00008BF00F019FF68680099C008C000B0EBC3
:1002E000C10F18BF00F010FF009907F1280000EBC4
:1002F000C100844206D039698C42C0F08180E26836
:10030000AA427DD1A04506D10098396801238340D7
:100310009943396076E0804506D0396988456FD3C6
:10032000D8F80800A8426BD1C4F80C80C8F808407F
:1003300068E0EC68D5F81880AC420CD0A868396940
:10034000884223D3C268AA4204BFA168A9421DD132
:10035000C460A0601CE005F114010C6834B905F11B
:1003600010010C68A4B101E011460C6804F11402FC
:100370001068002802BF04F1100210680028F3D1B1
:100380003869814202D300220A6001E000F0BCFE1D
:10039000B8F1000F36D0E96907F5987000EB8100DD
:1003A0000268954208D10460A4B9E869796801221D
:1003B00082409143796025E03869804508D3D8F8B8
:1003C0001010A94214BFC8F81440C8F8104001E04A
:1003D00000F09AFEB4B139698C4211D3C4F8188088
:1003E000286928B1884226BF2061846100F08CFE14
:1003F000686938B13969884202D36061846101E07B
:1004000000F082FE01996D188B4469684908490023
:1004100069604BF0010070604FEADB0446F80BB0F6
:100420001F2C23D807F1280000EBC4084546BBF178
:10043000100F38BF00F068FE386820FA04F1CA07D0
:1004400005D4012101FA04F404433C6007E0D8F824
:100450000800396988422CBF054600F055FEC8F8EF
:100460000860EE60B560C6F80C8060E05FEA1B20B3
:1004700008BF002123D0B0F5803F28BF1F211ED226
:10048000A0F58072120C02F008029040A0F5805195
:10049000090C01F004018840A0F580431B0CC2F157
:1004A0000E0203F00203521AD21A984002EBD03225
:1004B000D01D2BFA00F101F0010101EB4201F161C5
:1004C000002307F59872736102EB810033617A684B
:1004D00022FA01F3DC0707D4012303FA01F11143E7
:1004E00079600660B0611DE002681F291DBF4908E0
:1004F000C1F119010BFA01F1594600E002465068BA
:10050000C008C000584516D002F11003C80F03EB15
:100510008003490018680028F0D13869834204D369
:100520001E60B261F660B66001E000F0EDFD09F119
:100530000800BDE8F68B396990688A4228BF884276
:10054000F3D3C6609660B060F2600020B061EEE761
:100550002DE9FE4F04468B46A5692E4690469946E6
:100560003146FFF711FE0268416802EB010AAAF169
:10057000270111F007000EBF0021C1F1080101F0B1
:1005800007010AEB0100A0F12F0706F110018F42CD
:1005900038BF374607F11802002101920091A8F1F7
:1005A000280259462046FFF715FE07F1080010F013
:1005B000070F18BF00F0A8FD1B20786007F10801A5
:1005C00004F5E07090E80C5081E80C50C0F800B0E1
:1005D000C0F80480C0F80C9081600722019800994F
:1005E00000E0001D491C00F1080353454260F8D3A8
:1005F0000129D8BF00F088FDB74200F09580BF1BED
:10060000301D321DC15949084900D15147F0010040
:1006100070604FEAD70BF751BBF11F0F21D804EBE5
:10062000CB0000F12805A846102F38BF00F06CFD64
:10063000206820FA0BF1CA0705D4012101FA0BF159
:100640000843206006E0A868216988422CBF8046E4
:1006500000F05AFDAE60C8F80C60C6F80880F5607E
:100660006FE0380A08BF002123D0B0F5803F28BFD3
:100670001F211ED2A0F58072120C02F008029040D9
:10068000A0F58051090C01F004018840A0F58043D9
:100690001B0CC2F10E0203F00203521AD21A984048
:1006A00002EBD032D01D27FA00F101F0010101EB7D
:1006B000420104EB8102002302F59870F16173613D
:1006C0003361626822FA01F3DB0707D4012303FADE
:1006D00001F1114361600660B0611DE002681F29ED
:1006E0001DBF4908C1F1190107FA01F1394600E0BF
:1006F00002465068C008C000B84216D002F110038C
:10070000C80F03EB8003490018680028F0D1206966
:10071000834204D31E60B261F660B56011E003B09D
:10072000BDE8F04F00F0F0BC0BE0216990688A4210
:1007300028BF8842F3D3C6609560B060F2600020A5
:10074000B06103B0BDE8F08F2DE9F041574F054689
:100750003868884608B9FFF724FDB96801EB08003E
:100760002F30491E20EA010188457DD205F5D87653
:10077000B06828B1326889188A4275D2884273D32A
:1007800000F002FD01001CBF0C6811F1010F6BD0DD
:100790003068201805F5D87230605368984238BF29
:1007A00018467060A86960BB286908B1814200D210
:1007B0002961316174610020F0614FF0FF303A68C7
:1007C0006A62286205F128020020D260926002F17C
:1007D000080757611761801C10322028F5D3344870
:1007E000854208BFA4F1280228D055F8040CC0089F
:1007F00005EBC002A2F108000A19121A283A0146B4
:100800001CE005F5E070024600E092687AB31368D8
:1008100057681F44B942F8D1137B1F0727D4AB692F
:100820001768BB4223D3D2F804C06744BB421ED230
:10083000A444C2F804C0E868A96922182846FFF752
:10084000C9FC1FE08068C0B103689342FAD1027B03
:10085000130712D4026801604368E41844604346F9
:100860002846BDE8F041D0E40020BDE8F0812A69C7
:10087000914238BF29610A19E5E70023224628463C
:10088000FFF766FEE8688045EED2A0EB0800A96994
:10089000E86001EB0802AA6140F00100506048F0F6
:1008A0000300486001F10800BDE8F08188CC002019
:1008B00088BE00206859883C2DE9F84F00258946FC
:1008C000090AC9F1000B08BF002323D0B1F5803F0E
:1008D00028BF1F231ED2A1F58072120C02F008025D
:1008E0009140A1F580531B0C03F004039940A1F53E
:1008F0008044240CC2F10E0204F00204D21A121B2E
:10090000A14002EBD132D11D29FA01F303F001031A
:1009100003EB4203074607F5987858F8230030B3F5
:100920001F2B0FBF4C465C08C4F1190409FA04F4EC
:10093000AC46594600E064004268D208D200A2EBFF
:1009400009028A4203D21100054600F0698142691A
:1009500010304FEAD47B50F82B00002A1CBF824293
:1009600094460028E7D18B466046B0BBBDBB012250
:1009700002FA03F35B005842796803430B4000F02E
:100980004E81584203405B1E180B00F01000C3401C
:10099000590901F00801CB409A0802F00402D34043
:1009A0005C0804F002040818E3401018C3F3400682
:1009B00020183044F3401B1858F823000DE0084677
:1009C0004168C908C900A1EB090159453CBF8B46E4
:1009D000054601690029F2D140690028F0D1002DB7
:1009E00000F01D81B868A0EB0900834580F01781F5
:1009F00039698D42C0F011816868C008C00009EBF8
:100A00000B01884218BF00F07FFB05EB0906B542D9
:100A100080F00381EC68D5F818A0AC420CD0A8682F
:100A20003969884223D3C268AA4204BFA168A94297
:100A30001DD1C460A0601CE005F114010C6834B93C
:100A400005F110010C68A4B101E011460C6804F135
:100A500014021068002802BF04F110021068002878
:100A6000F3D13869814202D300220A6001E000F02C
:100A70004BFBBAF1000F36D0E86908EB8000016843
:100A80008D4209D10460200014D1E86979680122FF
:100A900082409143796026E03869824508D3DAF8CC
:100AA0001010A94214BFCAF81440CAF8104001E05F
:100AB00000F02AFBBCB13869844212D3C4F818A0F4
:100AC000286930B13969884226BF2061846100F00D
:100AD0001BFB686938B13969884202D3606184615F
:100AE00001E000F011FBBBF1100F0CD2D94449F02A
:100AF0000300291D6860281D51F8092042F00102F9
:100B000040F8092088E049F0030068604BF00100DC
:100B100070604FEADB0046F80BB01F281DD807EBCA
:100B2000C00101F12804396821FA00F2D307A34675
:100B300005D4012202FA00F00843386006E0A068FC
:100B4000396988422CBF834600F0DEFAA660CBF8F4
:100B50000C60C6F808B0F4605EE05FEA1B2008BFD6
:100B6000002123D0B0F5803F28BF1F211ED2A0F561
:100B70008072120C02F008029040A0F58051090C1E
:100B800001F004018840A0F580431B0CC2F10E0265
:100B900003F00203521AD21A984002EBD032D01D51
:100BA0002BFA00F101F0010101EB4201F161002299
:100BB0007261326108EB81007A6822FA01F4E3077E
:100BC00007D4012404FA01F1114379600660B06191
:100BD0001DE002681F291DBF4908C1F119010BFA68
:100BE00001F1594600E002465068C008C00058456F
:100BF00018D002F11003C80F03EB800349001868F6
:100C00000028F0D13869834204D31E60B261F660D7
:100C1000B66001E000F078FA14E100F075FA0EE138
:100C20008B46A2E6396990688A4228BF8842F1D390
:100C3000C6609660B060F2600020B061ECE72DE91C
:100C4000F84F06468846716848420140491E080B25
:100C500000F01000C1404A0902F00802D1408B08A0
:100C600003F00403D9404D0805F002051018E940CF
:100C70001818C1F34004281806F5987A2044E1407A
:100C800009185AF821104868C008C0000D46A0EBAA
:100C9000080909E001464868C008C000A0EB080048
:100CA00048453CBF81460D4608690028F2D1496994
:100CB0000029F0D130698542C0F0BF806968C90859
:100CC00008EB090BC900594518BF00F01DFA05EBE8
:100CD00008008542009080F0B080EF68AC69AF42B8
:100CE0000CD0A8683169884223D3C268AA4204BFE5
:100CF000B968A9421DD1C760B8601CE005F11401B4
:100D00000F6837B905F110010F68A7B101E011466E
:100D10000F6807F114021068002802BF07F11002E3
:100D200010680028F3D13069814202D300220A60A2
:100D300001E000F0E9F9002C31D0E8690AEB80000D
:100D400001688D4208D107608FB9E8697168012296
:100D500082409143716022E03069844205D3216969
:100D6000A94214BF6761276101E000F0CDF9B7B176
:100D70003069874211D3BC61286930B1316988423A
:100D800026BF3861876100F0BFF9686938B1316901
:100D9000884202D37861876101E000F0B5F9B9F1CA
:100DA000100F0BD24BF00300291D6860281D51F86D
:100DB0000B2042F0010240F80B203DE048F0030117
:100DC0002A1D696049F0010042F80800009941F8C5
:100DD0000990D6F808804FEAD80BBBF1200F28BF46
:100DE00000F092F9B8F1000F22D006EBCB00776942
:100DF00000F12804A246B8F1100F38BF00F084F9C2
:100E0000306820FA0BF1CA0705D4012101FA0BF171
:100E10000843306006E0A068316988422CBF8246F2
:100E200000F072F9A760CAF80C70C7F808A0FC605F
:100E3000C6F808900098706104E000F065F90020A1
:100E4000BDE8F28F05F10800BDE8F28F2DE9FE4FF5
:100E50000546AFF30080F52DDFF8A86280F004812D
:100E60000B2D31BF10250B35ED08ED003068EC0877
:100E7000E04010F0030F46D0C04300F00100041919
:100E800006F1280000EBC408E700D8F808506868AD
:100E9000C008C000B84218BF00F036F9D5F8089075
:100EA000454508BF00F030F94D4508BF00F02CF96A
:100EB0006868C008C000B84218BF00F025F9C845EE
:100EC00007D13068012101FA04F420EA04043460F7
:100ED0000DE03069814508D3D9F80C10A94204D13E
:100EE000C8F80890C9F80C8001E000F00DF947F04F
:100EF0000300291D6860281DCA5942F00102C25131
:100F000005F10804F8E0B168A94280F0BE8000282D
:100F100000F0A1804FF0010808FA04F1490000FA3E
:100F200004F4484201430C4060420440641E200B1C
:100F300000F01000C440610901F00801CC40A20893
:100F400002F00402D440630803F002030818DC40F6
:100F50001018C4F3400718183818FC40241806F17C
:100F6000280000EBC40AE700DAF80890D9F804007A
:100F7000C008C000B84218BF00F0C6F8D9F808B0E1
:100F8000D14508BF00F0C0F8D94508BF00F0BCF853
:100F9000D9F80400C008C000B84218BF00F0B4F887
:100FA000DA4506D1306808FA04F420EA0404346013
:100FB0000DE031698B4508D3DBF80C00484504D1BE
:100FC000CAF808B0CBF80CA001E000F09DF87F1B38
:100FD00045F0030009F10402C9F8040047F00101DB
:100FE000515109EB05020192D751B4684FEAD40A76
:100FF000BAF1200F28BF00F087F834B3CDF800A075
:1010000006F12800756900EBCA0AD346102C38BFD8
:1010100000F07AF83168009821FA00F2D30704D47E
:1010200008FA00F00843306007E0DAF80800316998
:1010300088422CBF834600F067F8CAF80850CBF806
:101040000C50C5F808B0C5F80CA0B76009F1080449
:101050000198706150E07068C0B329463046FFF7D0
:10106000EEFD040011D047E015F1400F28BF4FF00E
:10107000FF350AD20B35ED087068ED0028B129461E
:101080003046FFF719FC040036D1B068A8421DD3E2
:10109000411B726910290AD350197061B16041F087
:1010A00001034360415045F0030555600BE000210A
:1010B000B1607161131D40F003015160111D1C5896
:1010C00044F001040C5002F1080415E0F068854278
:1010D0000DD2401BB169F0604A19B26140F00100C5
:1010E000506045F003054D6001F1080404E0294615
:1010F0003046FFF729FB0446AFF300802046FFF798
:1011000020BB000088BE0020012000F053B8F0B4DE
:101110000246106895681318506803EB5004C00726
:101120001DD54D441BE013F8017B05F8017B491EDA
:10113000F9D1A0B1B60813F8011B06F00306032E7F
:1011400008BF13F8016B01EB06214942801C2944BA
:1011500005D011F8016B05F8016B401EF9D1A342CF
:101160000ED013F8016B16F0030104BF13F8011B36
:10117000C91C30090F28DAD113F8010B0F30D6E75C
:10118000F0BC02F10C0070470749086808B1002064
:1011900070470648C008C00008600549C908C90072
:1011A000091A0160704700BF90CD00209FDF00202A
:1011B00098EF002080B5AFF30080024A110018209C
:1011C000ABBEFBE7260002002DE9F04F0FF2A41C96
:1011D000A1B0DCE90089CDE900892A9DDFF8109CE7
:1011E000049100248DF843500D944FF0FF3882464F
:1011F00016461F460FE0B3462C461BF8011B049809
:10120000D0470028049000F0A2800D98401C641E76
:101210000D90F2D176193078252808D100210022CE
:101220000791089209910A920B910C920DE06A467F
:101230004146304600F0F2FF050001D10D98A1E0D3
:10124000D9D50125E6E741F0010116F8010F202864
:10125000F9D023280CD02B2804D02D2805D03028F5
:1012600009D076E041F00201EFE741F00401ECE73C
:1012700041F00801E9E741F01001E6E70F9209E0CB
:101280000F98484505DA00EB800402EB4402303A3F
:101290000F92761C3278A2F130000A28F0D3307811
:1012A0002E2818BFCDF8388022D116F8010F2A2831
:1012B00007D138683860761C50F8042B38600E92DD
:1012C00016E02D280CBF761C002000220E920AE0AA
:1012D00040B90E9A4A4505DA02EB820403EB440357
:1012E000303B0E93761C3378A3F130020A2AEFD3F9
:1012F000ADF8401021A0317800F09AFF08B116F83F
:10130000010B8DF842009DF84200682804D1307826
:1013100068280AD1622105E06C2804BF30786C2867
:1013200003D171218DF84210761C12A806903A461E
:1013300016F8013B02A9504600F064F838B912AA29
:1013400002A9504600F0CAF900287FF564AF404674
:1013500018E02A2892D13A683A6052F8040B3A60B1
:1013600000280F9003D540420F9041F00401761CF5
:1013700095E700000000000000000000686A6C743F
:101380007A4C000021B0BDE8F08F622820D0682898
:1013900011D06A2803D06C2827D0712825D108687D
:1013A000C01D20F007000860D0E900230830086065
:1013B000194610467047002A0A680A60106803D070
:1013C000121D0A6000B217E0121D0A6080B217E019
:1013D000002A0A680A60106803D0121D0A6040B231
:1013E0000AE0121D0A60C0B20AE0002A0A680A6018
:1013F000106803D0121D0A60C1177047121D0A60E1
:10140000002170477CB50D4611461C462E69B4F18B
:10141000250200F051811C3A00F08680121F022A3A
:1014200040F282800E3A00F00B81521F5AD0093AE6
:101430007AD0921E16D0521E35D0521E022A73D96F
:10144000121F30D0521F00F09A80521E4AD0521EF6
:1014500000F0E480D21E00F00181921E42D0D21E24
:1014600040D02FE195F83A406C2C09D06869421CB5
:101470006A610A680A6052F8043B0A6033542BE13F
:101480000A680A6052F8043B0A6000930022019245
:101490004FF0FF332B636A46294600F09AF9002883
:1014A00040F11A8105E195F83A000122FFF76DFF3E
:1014B000C5E900010023994204DA6869411C6961A9
:1014C0002D220DE0288F810704D56869411C6961D0
:1014D0002B2205E0C00722D56869411C69612022E2
:1014E00032541CE095F83A000022FFF74EFFC5E9A0
:1014F000000195F83800010711D5D5E90023002037
:10150000834208BF82420AD044F02000782806D1E6
:10151000686930213154401C421C6A6134542146B0
:1015200068693044E86087E00868C01D20F0070063
:101530000860D0E9002308300860C5E90023D5E938
:101540000001C80F04D06869411C69612D220DE0BB
:10155000288F810704D56869411C69612B2205E049
:10156000C00704D56869411C69612022325468694A
:101570003044E8602146284600F03AFAACE005F134
:101580003A02507820B14FF0FF340FF6343074E057
:101590001078622808D0682824D06A2812D06C28D5
:1015A0002ED071280ED02BE00A680A6052F8040B86
:1015B0000A6020B94FF0FF340FF61C305DE0E96A95
:1015C000017089E00A680A6052F8040B0A6020B9C9
:1015D0004FF0FF340FF600304FE0EA6AD317C0E94E
:1015E000002379E00A680A6052F8040B0A6020B907
:1015F0004FF0FF340FF6E0203FE0E96A01806BE036
:101600000A680A6052F8040B0A6020B94FF0FF34F0
:101610000FF6C42031E0E96A01605DE00A680A6003
:1016200052F8040B0A60002120F0000221F0FF3381
:10163000C5E90023EE607821284600F02DF94BE043
:101640006C2285F83A200B680B6053F8042B0B6072
:1016500052BB4FF0FF340FF6B4200EE095F83A205D
:101660006C2AF0D00868086050F8044B0860EC6001
:101670003CB94FF0FF340FF6782000F0F3FD201A4C
:1016800076BD2E6B002E04D5204600F00BFE0446DE
:1016900008E032460021204600F02CFE002814BF4E
:1016A000041B3446AC6117E0294600F092F800288C
:1016B00012D54FF0FF3076BD6869411C6961252263
:1016C000325409E06969481C68612522725421007E
:1016D00002D0431C6B613454002076BD2DE9F041EB
:1016E0000E4605469046726B7069316AB46A121AEA
:1016F000B069521A716A121AF069521A121A96F8DF
:101700003800141B41070DD4002C0BDD2746B068B0
:101710002021A8470028B06057D0F06A401C7F1EE7
:10172000F062F4D1736942463146284600F0B0FCBD
:1017300000284AD1376A002F0ADDB0683021A84757
:101740000028B06041D0F06A401C7F1EF062F4D1E6
:10175000B369F2683146284600F09AFCA8BB776A64
:10176000002F09DDB0683021A847B06068B3F06A87
:10177000401C7F1EF062F5D1F068B169F369421830
:101780003146284600F084FCF8B9B76A002F09DD1D
:10179000B0683021A847B060B8B1F06A401C7F1E25
:1017A000F062F5D196F8380041070BD5002C09DD21
:1017B000B0682021A847B06038B1F06A401C641EB0
:1017C000F062F5D10020BDE8F0814FF0FF30BDE8B8
:1017D000F0812DE9F8470D46A3B02F6B002F064688
:1017E000904648BF6FF000470FF63C1400F0AEFD86
:1017F000D4E90023696B4018CDE90123812828BF73
:101800004FF0FF3042D20024002F33DDD8F8001013
:1018100001AA684600F004FD8146B9F1000F38D4F2
:10182000D8F8000010B9B9F1010932D44F4521DBD5
:101830006869484481280AD30021696303AA2946BC
:101840003046FFF74BFF040014D40020686103AB5F
:10185000D5F814A04A46694603EB0A0000F07CFD67
:10186000CA44C5F814A058F8040B002818BFA7EB09
:101870000907C9D14CB903AA29463046FFF72EFF04
:10188000044614B9002068616863204624B0BDE8AE
:10189000F0874FF0FF34F8E72DE9FC4707468C4608
:1018A0003E69BCF16F0F08BF082405D04CF0200042
:1018B000782814BF0A2410243C25D7E90023BCF162
:1018C000640F18BFBCF1690F9046994606D10021FC
:1018D0008B4203DAD8F1000869EB49094FF0000A9E
:1018E000D14508BFD0451FD1386BE8B9082C4BD182
:1018F00097F83800010747D530203B2586F83B0094
:1019000042E000280ED597F8380000F014001028A7
:1019100008D17B6B7969386A5B1A1B1A9A1A002AFC
:10192000C8BF3A62BDE8F3878DF800C0404649461B
:101930002246E31700F064FD3032D0B26D1E3A2823
:10194000019504DB9DF80000A0F151018A18725541
:10195000404649462246E31700F052FD894680463C
:10196000D14508BFD04503D0F86871198842DDD34E
:10197000082C09D197F83800010705D5705D30288B
:1019800002D06D1E30207055C5F13C02BA6171194C
:10199000F960386B8242B4DA821A3A624FF6EF701D
:1019A000398F01403987BDE8F3872DE9D0430646DA
:1019B0000F4614464FF00008DFF8389412E0E007B5
:1019C00007D542464B463046394600F031FE0646C2
:1019D0000F464046494642464B4600F029FE6410F9
:1019E00080468946002CEAD130463946BDE8D0838E
:1019F0002DE9F34F054641F020048DB0D5E900896B
:101A0000612C02AE09D0286B002848BF062003D401
:101A100008BF672C01D101202863D5E900235800B5
:101A20004015401C0ED119030CD00320A8619DF86D
:101A3000381061391A2902D20FF2F46111E00FF265
:101A4000F4610EE059004915491C0FD118030DD15E
:101A50000320A8619DF8381061391A2914D30FF2B8
:101A6000DC61E868032200F077FCD3E1194621F03D
:101A70000043B3F5801F10460DD20027BB4208BFBC
:101A8000BA42019703D111E00FF2AC61E9E701AA74
:101A900000F0A0FE0AE0DFF8607307EB1352DFF8F6
:101AA0005C3301921940DFF858331943C5E900014E
:101AB000612C0ED1E86830210170821CEA609DF82B
:101AC000381061290CBF7821582141706869801C49
:101AD0006861D5E900AB2BF0004300202AF000023A
:101AE000834204BF8242002300F05B81612C40F0FE
:101AF000AA80286B002847BF21210091401C00903C
:101B0000009F7F1C404649460022002300F09AFEB9
:101B1000D94601998DF8082038BF89F00049091F7E
:101B2000002FD04601910DF1090040F34981B349DE
:101B3000DFF8D0B20C910646404649460022002309
:101B400000F098FE80F03B814800400D00F11C023F
:101B500011D0002A0FDD40F2FF70824205DB09F050
:101B6000004040EA0B01002013E00C98014041EADC
:101B7000025140460DE029F00043002028F0000209
:101B8000834208BF82420FBF40461C22404600F0FD
:101B900089FE8046894600F023FFFF1F002F044680
:101BA00009DD00F03BFF02460B464046494600F087
:101BB00047FF80468946F01D072104E004F00F022C
:101BC00000F8012D2411002C01DD491EF6D5491E17
:101BD0005CBF002200F8012DF9D5ECE00020194689
:101BE00002AA0A4400E05B1E12F80149491E844221
:101BF000F9D00F2804D10DF10900425C521C425467
:101C0000002904D50198001D02AE5B1C0190591EED
:101C100012D49DF838007218A0F13A07147804F134
:101C200030085FFA88F43A2CA8BFB844491E02F87D
:101C30000189F3D58DF83800286B002840F1B08079
:101C4000591E2963ACE0404649460022002300F0BB
:101C5000F9FD019938BF89F0004947F29750414397
:101C6000694A91FBF2F20192D2F1070204DD40468B
:101C70004946FFF79AFE0AE0524200206349FFF707
:101C800094FE02460B464046494600F04BFF804614
:101C9000662C286BDFF878B106BF019F0A3706274C
:101CA0003F18142FC8BF142730208DF8080089462C
:101CB0000DF1090000E03046002F34DD06464046B5
:101CC000494601F053F801460A4606F1080304208C
:101CD0000A26B2FBF6F606EB860EA2EB4E02303277
:101CE00003F8012C0A22B6FBF2F202EB820EA6EBFD
:101CF0004E063036401E03F8026DE9D1083F002F32
:101D000003F10806D7DD084601F044F802460B4609
:101D10004046494600F094FE00225B4600F088FCF5
:101D200080468946CBE70DF10901401A0DF10906FD
:101D300004E00199491E401E0191761C317830293A
:101D4000F7D0662C02D10199491C03E0652C0CBF29
:101D5000012100212B6BCB189842B8BF431E002BEA
:101D60001ED4834204DAF05C3528A8BF392000DA9B
:101D700030201946721E02EB010800E05B1E18F8C5
:101D80000199491E8145F9D0392802D1705C401C67
:101D90007054002904D50198401C16465B1C019024
:101DA000019800B200901BB29DF8381032462846C8
:101DB00000F034F82EE0C61D002F3FF7BDAE3046D0
:101DC0000DF10901401A009903468842C8BF0B462D
:101DD000002B0DF109063FF52FAF8342BFF6FEAE93
:101DE0000DF10900C15C07297FF7F8AE0F20F6E678
:101DF000CBCCCC0C0000244002FCFFFFFFFF0F8087
:101E00000000E03F0000F07FA08601000000F03FEE
:101E100084D797410FB0BDE8F08F00002DE9F84757
:101E200083B006468A461746984600F0FBF9B8F19B
:101E3000000F406A356B90F8009002DC4FF001080B
:101E4000BFA74AF02000BDF93040662808BF641CD7
:101E500015D0672840F0848014F1040FC0F286800A
:101E6000AC4280F2838096F83800641C010702D4EB
:101E7000A845B8BF454620B22D1A48BF00250FFA25
:101E800084FAF068B169BAF1000F25DC4A1C3023EE
:101E90004354002D03DC96F83800010703D5F068A1
:101EA00000F80290521C15EB0A0FB8BF6C4220B22A
:101EB000441941424445B8BFA046B26171620FFA6D
:101EC00088F5F561F068B3692A463946184400F090
:101ED00043FA641BB462C4E022B29045084417DAA6
:101EE0004246394600F038FAB0694044B061AAEB86
:101EF0000801002D716203DC96F838100A0705D539
:101F0000F16801F80090F069401CF061B562A8E04A
:101F1000394600F021FAB069002D5044A8EB0408BE
:101F200003DC96F838100A0703D5F16801F8009031
:101F3000401CB0610FFA88F08542F368B069B8BF01
:101F4000A8460FFA88F207EB0A01184400F004FAD9
:101F5000B1690FFA88F00144B161281A706280E01B
:101F6000BAF1610F14D14FF0700A16E0A84504DAF7
:101F700096F838100A0758BF45466D1E48BF002521
:101F8000BAF1670F14BF4FF0450A4FF0650A04E03D
:101F9000BAF1410F08BF4FF0500AB169F368481C0D
:101FA000B061002D17F8012B5A5403DC96F8381055
:101FB0000A071BD5F168431CB36101F80090002D9E
:101FC00014DDA8F101080FFA88F039468542F76858
:101FD000B8BFA8460FFA88F2F81800F0BDF9B0694A
:101FE0000FFA88F108446D1AB0617562F068B16942
:101FF0000844002C80F800A003D42B224270811CDE
:1020000003E02D2141706442811C00206A460AE0F1
:1020100023460A2493FBF4F404EB8405A3EB450365
:1020200002F8013B401C24B2002CF1DC012806DC44
:102030004AF02002652A04BF302201F8012B48B97A
:10204000302001F8010B07E0401E1DF8003030334E
:1020500001F8013B0028F7DCF268B0691044091A66
:10206000F16196F8380000F0140010280DD1726963
:10207000B169706A8A18F1698218B06A8A18821880
:10208000706B8242BCBF821A326204B0BDE8F08736
:10209000F8B505460E4617461C46002074B117F8E1
:1020A000011BB068A847B06030B1F06A401CF06214
:1020B0000020641EF3D1F2BD4FF0FF30F2BD0000EE
:1020C0007072696E74665F733A20256E206469735E
:1020D000616C6C6F776564007072696E74663A202B
:1020E00062616420256E20617267756D656E740093
:1020F0007072696E74665F733A2062616420257342
:1021000020617267756D656E740000007072696E93
:1021100074665F733A2062616420256C732061727B
:1021200067756D656E74000000000000000000001F
:102130006E616E004E414E00696E6600494E46006B
:10214000300030B4002513E050F8042BD30744BF0F
:10215000A9F101039A18091F042942F8045BFAD275
:1021600013468C0744BF15809B1CC90748BF1D70D0
:1021700050F8041B0029E7D130BC7047613807E0F4
:1021800005E0A0F161011A2901D201207047413810
:102190001A288041C00F7047A0F10901052901D319
:1021A000202801D10120704700207047A0F1410193
:1021B0001A2938BF203070471B48704770B45368E5
:1021C000D418042B09DA41B1057804F8015B10F842
:1021D000016B16B15B1C491EF3E7536070BC70477E
:1021E00038B514461D4661B1FFF7E8FF61686A6BB8
:1021F000204690476FF00102811A02D0491E01D09B
:1022000001E003E005E00021616032BD6FF00100F4
:1022100032BD4FF0FF3032BDDA6B1047024BDFE7C3
:10222000014BF9E701487047DC500020A450002022
:102230000278C9B28A421AB11CBF10F8012FF9E71F
:1022400018BF00207047B1F5807F02D34FF0FF30F8
:1022500070470170012070470078401E8041C043E4
:10226000C00F704780B500B906A005490B681BB1C7
:1022700022220021984701E0FEF746FF222002BDFE
:102280008CCD0020636F6E73747261696E74206808
:10229000616E646C65723A20626164206D6573736F
:1022A0006167650000F10103810704D010F8011B8C
:1022B000820781B1FAD10268A2F10131914311F094
:1022C000803104BF50F8042FF6E709BAB1FA81F162
:1022D00000EBD100401CC01A70478268521C82601B
:1022E000426832B10268531C036011704168491E94
:1022F00041607047C9B2830706D0521E22D310F83E
:10230000013B9942F7D11FE0083A13D302F10402CE
:1023100041EA012141EA014150F8043B121F21BF6B
:102320004B40A3F1013C2CEA030C1CF0803FF3D09E
:10233000C9B2001F083210F8013B521E28BF91EAB3
:10234000030FF8D818BF0120401E704780B5FFF773
:1023500033FF006C02BD000062B38B0708D0521E31
:1023600011F8013B00F8013B00F024808B07F6D107
:10237000830740F0208000BF103A07D330B4B1E8A3
:102380003810103AA0E83810F9D230BC530724BFF7
:10239000B1E80810A0E8081044BF51F8043B40F829
:1023A000043BD20724BF31F8022B20F8022B44BF94
:1023B0000B7803707047121F17D35B0009D151F8D7
:1023C000043B20F8023B1B0C121F20F8023BF6D204
:1023D0000BE051F8043B00F8013B1B0A20F8023BDC
:1023E0001B0C121F00F8013BF3D238BF121D521E06
:1023F00024BF11F8013B00F8013BF8D870470000FA
:10240000BBBBE1B1B2F5803F80F07E80022A1ED9CD
:102410008C46B1FBF2F102FB11C31B0443EA1043EB
:10242000B3FBF2FC02FB1C3380B240EA0343B3FB74
:10243000F2F002FB103240EA0C4000237047022AFF
:1024400005D98446B0FBF2F002FB10C270474AB1D6
:1024500005D100F0010249085FEA30007047002210
:102460000023704700F0A4BC0B00020000210020F4
:102470007047904271EB030CF6D3B3F5803F2FD237
:10248000F0B5B3FA83F7B1FA81F4A7F10F0E3D1B53
:102490005340CEF1200602FA0EF2F3415340B5F15B
:1024A0000F0746D80F3C2C444140C4F12006A04001
:1024B000F1414140B1FBF3F603FB1611A2FB0645C7
:1024C000001BA94102D2761E8018594180EA010200
:1024D00021FA0EF362FA0EF200215A403046F0BDA6
:1024E00030B4B1FBF3FC03FB1C11A2FB0C45001B39
:1024F000A94103D2ACF1010C8018594130BC02460D
:102500000B46604600217047B2F1807F65D3F0B57D
:10251000B2FA82F7B1FA81F4C7F10F063D1B22FA35
:1025200006F307F1110EF24120355A40B5F10F07BD
:10253000B8D94140C4F12006A040F1414140B1FB6F
:10254000F3FC03FB1C11A2FB0C45001BA94103D2A9
:10255000BCF1010C801859410F2F12D30F3FC90352
:1025600041EA5041B1FBF3F603FB1611A2FB06450D
:10257000D4EBC030A94102D2761E8018594146EAF8
:10258000CC3C07B34140C7F12006B840F14141407F
:10259000B1FBF3F603FB1611A2FB0645001BA94194
:1025A00002D2761E8018594180EA010221FA0EF308
:1025B000C7F1200462FA0EF20CFA07F05A402CFA26
:1025C00004F13043F0BD80EA010221FA0EF300214C
:1025D00062FA0EF260465A40F0BD8C46B1FBF2F151
:1025E00002FB11C31B0243EA1063B3FBF2FC02FBC4
:1025F0001C331B024CEA002043EA1063B3FBF2FCDD
:1026000002FB1C331B024CEA002043EA1063B3FBBD
:10261000F2FC02FB1C331B024CEA002043EA10636D
:10262000B3FBF2FC02FB1C324CEA00200023704793
:10263000B0B581EA030C0CF0004C40F2FF7515EACE
:1026400011541DBF15EA1357AC42AF4239E0E419EB
:1026500023EA455343F48013C90241F0004141EAA3
:10266000505EC7021100A7FB020200284FF00000D5
:10267000EEFB01204FF00001E3FB072118BF42F001
:102680000102401800214941E3FB0E01A4F58064DA
:102690000F0302D252004041494154F101046CDD64
:1026A000470872F1004250F1000051EB0451A1F5CE
:1026B00080115CBF41EA0C01B0BD4CEA055100201D
:1026C000B0BD05EA1357AC4214BFAF4241E050EA37
:1026D000410E1CBF52EA430E02E061460020B0BD2D
:1026E00024423C441BD15FEA070EF6D0090302BF27
:1026F00001460020AEF1140EB1FA81F7AEEB0704EB
:1027000001FA07FE0C37C7F1200100FA07F7C840AD
:102710004EEA000E23EA455343F48013A2E733F058
:102720000043B3FA83F704BFB2FA82FE77440B3F4B
:10273000E41BB7F1200E2FBF02FA0EF3BB40C7F126
:10274000200E22FA0EFE38BF43EA0E03BA40641C84
:1027500082E750EA410E14BF52EA430E6FF00001C7
:102760004FF4001717EB430F8ABF194617EB410FC1
:10277000B5E74CEA05510020B0BDD4F10104B4F135
:1027800020070FDAC4F12007520828BF42F00102E7
:1027900010FA07F501FA07F7E1BF2A43E040384392
:1027A000E1400FE0352C98DCC7F1200452EA4002EA
:1027B00020FA07F218BF42F0010231FA07F0A140F7
:1027C0000A43002172F1004250F1000051EB0C016C
:1027D000B0BD000010B5144600F002F8226010BD34
:1027E000C1F30A5343B14A0012F5001F28D2A3F2E5
:1027F000FE32A1EB0251704750EA410C20D001F0AB
:10280000004C31EA0C01B1FA81F204BFB0FA80F356
:10281000D2180B3AB2F120032CBF00FA03F1914019
:1028200041EA0C013EBFC2F1200C20FA0CF319431F
:102830009040524240F2FD33D21A01EB03517047EF
:10284000002270474FF4001C1CEB410F94BF1CEB9F
:10285000430F09E041EA030C50EA4C0C52EA0C0C1D
:1028600003D2994208BF9042704714BF8B42824204
:10287000704700004FF4001C1CEB410F94BF1CEB91
:10288000430F09E041EA030C50EA4C0C52EA0C0CED
:1028900003D28B4208BF8242704714BF99429042D4
:1028A00070470000124254D440F2FF7C1CEA1153DE
:1028B0000FD0634531D09B1863453CBF01EB0251FB
:1028C000704701F0004141EA0C510020AFF3008055
:1028D000704750EA410320D001F0004C91EA0C010E
:1028E0001CD0B1FA81F30B3B9A420DD9D21A994010
:1028F00051EA0C01C3F1200C20FA0CFC6144984011
:10290000531C40F2FF7CD7E7914041EA0C01C2F131
:10291000200C20FA0CF3194390407047B0FA80F372
:102920001533202BE0D3202AEED3203A203B9A42C5
:1029300009D9D21A00FA03F141EA0C010020531C14
:1029400040F2FF7CB8E700FA02F141EA0C010020F6
:102950007047524240F2FF7C1CEA11530DD0634590
:10296000DBD0B2EB030C3CBFA1EB025170470CF182
:10297000010221EA035141F4801150EA410CCCD00C
:1029800001F0004C352A27DC30B481EA0C01B2F1A9
:10299000200309DAC2F12003044601FA03F5D0400E
:1029A0002843D1409C400CE0C3F12002450020FAAE
:1029B00003F418BF44F0010421FA03F091400C43E2
:1029C000002174F1004550F1000051EB0C0124424C
:1029D00030BC7FF47BAF70476146002076E7000093
:1029E000C1F30A5340F2FE329B1A14DDD3F12003E7
:1029F0004FEAE17208DDC90241EA505141F000405E
:102A0000D84080185040704703F2E13010B1D243F3
:102A100082F000407047002070470000C11768B185
:102A20004840401AB0FA80F29040D21CC907C2F563
:102A3000846241EA025202EBD02140057047000057
:102A400070B44FF0004591EA030F40F1BB816B4039
:102A5000841A71EB030603D2001BB14112197341B2
:102A60004FF4001C1CEB410F34BF7CEB430442E0ED
:102A70000C0DA4EB1356352E4FDC45EAC323DB0ABD
:102A800045EAC121C912B6F120050DDD63FA05F64C
:102A9000EB4086EA0305124218BF45F00105C01855
:102AA00051F100010CD213E062FA06F5F2405540F4
:102AB000F3415A40B340F3405A408018594107D37C
:102AC00049085FEA30005FEA350528BF45F0010597
:102AD00001F58011420875F1004250F1000041EB10
:102AE00004514E0016F5001F70BC38BF704700201F
:102AF000090D090570471CEB410F10D252EA43063D
:102B00000BD0BCEB410F05D80C0DAB43661E342E29
:102B1000B6DD02E0AB438018594170BC704770BC11
:102B200070470000F0B540F2FF7581EA030C0CF02D
:102B3000004C15EA11541DBF15EA1357AC42AF42C1
:102B4000E5E0BC41C1F31301C3F31303801A9941BB
:102B500043F4801304D2641E400049418018594157
:102B6000C90241EA5051B1FBF3F603FB1611A2FB77
:102B70000675D7EBC020A94102D2761E80185941B4
:102B8000C90241EA5051B1FBF3FE03FB1E11A2FB47
:102B90000E75D7EBC020A94103D2AEF1010E80180B
:102BA0005941890241EA9051760546EA8E2EB1FBE1
:102BB000F3F603FB1611A2FB0675D7EB8020A941A3
:102BC00002D2761E80185941C90241EA50514EEA9C
:102BD000060EB1FBF3F603FB1611A2FB0675D7EB4D
:102BE000C020A94102D2761E80185941C90241EA8B
:102BF0005051B1FBF3F703FB1711A2FB0735D3EBE1
:102C0000C020A94167F100070CBF004247F001074F
:102C100066F3D5274FEA1E31B80814F5806412DD3B
:102C2000BD0775F1004250EB0E5051EB045111F508
:102C3000801F5CBF41EA0C01F0BD4CF07F6141F0A8
:102C4000E0410020F0BDBD076D0840EA0E5041F4A0
:102C50008011D4F10104B4F120060ADAC4F120068F
:102C60000200E04001FA06F3E1401843B240154388
:102C70000EE0342C13DCC6F1200445EA40056D0853
:102C800020FA06F2154321FA06F0A1400D43002177
:102C900075F1004250F1000051EB0C01F0BD002035
:102CA0005FEA0C01F0BDCFB992185B41B3FA83F72C
:102CB00004BFB2FA82F6BF190B3FB7F120062FBF4F
:102CC00002FA06F3BB40C7F1200622FA06F638BF27
:102CD0003343BA401CB1E419641E33E77F4231F03C
:102CE0000041B1FA81F404BFB0FA80F6A4190B3C9C
:102CF000B4F120062FBF00FA06F1A140C4F120066E
:102D000020FA06F638BF3143A0403C1B1AE7AC421C
:102D10001ABF05EA1357AF4212E050EA41061CBF42
:102D200052EA4306BFE750EA4107304661461CBFFE
:102D300041EA0551F0BD52EA430C08BFC143F0BD62
:102D400000204FF4001616EB410F98BF16EB430F0F
:102D500008BF16EB410F24BFC14305E016EB430F3C
:102D60000CBF61464CEA0551F0BD0000400D49180A
:102D700040EA81200CD2490DA1F58061491C40F048
:102D8000004005DBD1F11F0154BFC840C017704798
:102D900000207047014648B1B0FA80F18840C91C54
:102DA000C1F58461090501EBD021400570470000A1
:102DB0007047000070B44FF0004591EA030F7FF5B3
:102DC00047AE6B40841A71EB030604D26E40001BC1
:102DD000B141121973414FF4001C1CEB410F34BF79
:102DE0007CEB430683E00C0DA4EB1356362E00F368
:102DF0007C80012E45EAC32341DC43EA525312BFD3
:102E0000D20292025B08240545EAC12141EA5051F1
:102E1000D2EBC020994125D407D1B0FA80F610FA40
:102E200006F162D00020203608E0B1FA81F6B14008
:102E3000C6F1200220FA02F21143B0404FEAF474C6
:102E4000B4EB465434F001064FEA74040AD8D6F5C0
:102E50000016760D04F00044F04061FA06F250408E
:102E6000F1404840C00A40EA415021F0004128BFEB
:102E70005FEA500550F1000044EBD12135E0DB0A58
:102E800045EAC121C90AB6F120050EDD42EA024237
:102E9000120CC5F1200603FA06F6EB4042EA0605DD
:102EA0006D42984161F100010DE062FA06F5F240D1
:102EB000554063FA06FC82EA0C02F3405A406D4228
:102EC000904161EB030111F4801F05D1641E62057E
:102ED00002D06D004041494121F48011430875F151
:102EE000004350F1000041EB045170BC70471CEBF3
:102EF000410F15D223F0004352EA43060BD04FEAAC
:102F00004C0CBCEB410F04D80C0D661E342EB7DD03
:102F1000EBE7801A994150EA410608BF0021E4E737
:102F200008BF1CEB430F28BF6FF00001DDE7000076
:102F3000DFF87C0A002141600021C160002141616D
:102F40000021C161002181610021016001218160B6
:102F50000020DFF8601A48607047DFF85C0A002143
:102F6000C164002101650021416500214163002108
:102F700081630021C16390ED001A30EE411AD0ED5B
:102F80000D1A31EE211A80ED0D1A90ED011A30EE76
:102F9000C11AD0ED0E1A31EE211A80ED0E1A7047CB
:102FA00080B55121DFF8140A00F013F85321DFF83F
:102FB000100A00F00EF85321DFF8080A00F009F8B3
:102FC000DFEDC80A9FEDC70AFFF7C7FFFFF7B0FFA5
:102FD00001BDF8B52DED028B05000C000026A642C0
:102FE00034DA142707FB06F0284490ED000AB0EE0F
:102FF000408A07FB06F02844406807FB06F168504A
:1030000007FB06F0284480ED018A07FB06F0284400
:1030100007FB06F1294491ED030AB1EE400A80ED69
:10302000030A07FB06F02844C06800F0F5FCDFF84F
:103030009829DFF89839FFF7BDFE00F011FD07FB76
:1030400006F705EB0701C860761CC8E7BDEC028BEC
:10305000F1BD80B52DED028BB0EE408AF0EE608AB6
:10306000DFF85409F0EE681AB0EE481AD0ED010A04
:1030700090ED000A00F0ACFDBDEC028B01BD00003C
:1030800070B52DED028BF0EE408AB0EE608A040040
:103090000D001600DFF8200990ED000A38EEC00A96
:1030A000D0ED000A78EEE00A20EE200AD0ED010A09
:1030B00078EE600A90ED011A38EE411A00EE810AAE
:1030C00000F0D8FDDFED880A20EE200AFDEEC00AF0
:1030D00010EE900A864201DA300003E0002801D5A4
:1030E00000210800BDEC028B70BDF8B586B004006D
:1030F0000D00160001200090684601218160012129
:103100000161446003950596DFF8C4786946386824
:1031100080B200F019FE02A9786880B200F014FEB7
:1031200004A9B86880B200F00FFE07B0F0BD00003F
:10313000F8B52DED0C8B0600B0EE408AF0EE608AFB
:103140009FEDBE9ADFEDBE9A9FEDBEAA40F2F5104C
:10315000864203DB4FF4FA70060004E0DFF87408DF
:10316000864200DA0600DFF850783000FFF756FCA0
:1031700004000D0097ED020A3AEE000A30EE480A0C
:1031800010EE100A00F048FC41EC100B00F0B7FE06
:1031900051EC100B22002B00FFF74AFA91F000418E
:1031A00000F05EFC0AEE900A3000FFF737FC0400E6
:1031B0000D0097ED020A39EE800A30EE480A10EE53
:1031C000100A00F029FC41EC100B00F098FE51ECC5
:1031D000100B22002B00FFF72BFA91F0004100F0BA
:1031E0003FFC0BEE100A3000FFF718FC04000D0046
:1031F00097ED020A39EE000A30EE480A10EE100A86
:1032000000F00AFC41EC100B00F079FE51EC100BC1
:1032100022002B00FFF70CFA91F0004100F020FC97
:103220000BEE900A9FED2FCADFF88817C8680128B7
:1032300024D18868002821D1D7ED020AB0EE680AAF
:10324000DFF8940700F040FCB1EE400AB0EE40CA4F
:103250009FED7D0AB4EE40CAF1EE10FA04DB9FED5B
:103260007B0AB0EE40CA26E09FED790AB4EE40CA70
:10327000F1EE10FA1FD5B0EE40CA1CE0C868002875
:1032800019D18868012816D1B0EE68CA9FED6E0A80
:10329000B4EE40CAF1EE10FA04DB9FED6C0AB0EE1A
:1032A00040CA08E09FED6A0AB4EE40CAF1EE10FA97
:1032B00001D5B0EE40CA7AEE8CCA3BEE0CDA7BEE5A
:1032C0008CDABDEEED0A10EE102ABDEECD0A10EE3E
:1032D000101ABDEEEC0A10EE100AFFF706FFBDEC67
:1032E0000C8BF1BD0000000000007A4438B52DEDD4
:1032F0000A8BB0EE40CAF0EE60CAB0EE418AF0EE42
:10330000618AB0EE429AF0EE629AB0EE43AAB0EE55
:10331000480AF0EE680A00F091FE002809D0DFF8B4
:103320009806D0ED020A9FED4B0A0020FFF700FF40
:1033300081E0B0EE480AF0EE680A00F05BFEB0EE05
:10334000401AF0EE601ADFF89446B0EE490AF0EE4B
:10335000690A00F0F2FD51EC100B00F081FB2060D7
:10336000B0EE480AF0EE680A00F0F3FD51EC100BE5
:1033700000F076FBDFF868160860DFF86856D4EDD9
:10338000000A9FED340ADFF8600600F09DFBB1EE05
:10339000400A85ED000AB0EE480AF0EE680A00F037
:1033A00029FEB0EE40BAF0EE60BA286800F034FBB7
:1033B00041EC110BB0EE4B0AF0EE6B0A00F0ECFDA5
:1033C000DFF8280680EC020A90EC021AB0EE480AF8
:1033D000F0EE680A00F0A0FDDFF8144684EC020A63
:1033E000DFF8D45594EC020A00F0B3FD51EC100B59
:1033F000FFF7F6FAE864206800F00EFB41EC110BD1
:10340000B0EE41BAF0EE61BA606800F005FB41EC45
:10341000100BB0EE4B1AF0EE6B1A00F068FD51EC99
:10342000100B00F01DFB2865F0EE4A0A95ED140A1A
:10343000E86CFFF77DFEBDEC0A8B31BD920A863F3A
:10344000920A86BFDB0F49400100AF430000AF4343
:103450000000AFC3000000002DE9F24F2DED048BFA
:1034600084B00400DFF84855A868012803D1089803
:1034700028610020A860DFF84065D6ED070A96EDC8
:10348000060A00F07CFDDFF86CB58BEC020A14270D
:10349000E86878432044C06800F0BEFA41EC100BA5
:1034A00000F033FDB0EE408AF0EE608AE8687843C1
:1034B0002044C06800F0B0FA41EC100B00F01FFD92
:1034C000B0EE409AF0EE609AE8687843204490EDC0
:1034D000020AB8EEC00A10EE100A00F09DFA53EC92
:1034E000182BFFF7A5F800F0BBFA00EE900AB0EE3B
:1034F000608AE8687843204490ED020AB8EEC00A7A
:1035000010EE100A00F088FA53EC192BFFF790F830
:1035100000F0A6FA00EE100AF0EE480A00F02FFDC7
:10352000DFF8D4A48AEC020AE8687843204490EDDE
:10353000010AD6ED010A70EE600AE868784320447B
:1035400090ED000A96ED001A30EE410A00F017FDEA
:10355000DFF8A89489EC020A99EC020A00F0F9FC61
:10356000B0EE408AF0EE608ADFF8940490ED000A35
:10357000F1EE080A20EE209A006800F04DFA53ECB4
:10358000182BFFF777F908D919EE100A00F044FA62
:1035900053EC182BFFF76EF902D85FF0010801E039
:1035A0005FF00008B8F1000F1BD02869801EE968A1
:1035B000884216DBB06800F02FFACDE9020170688E
:1035C00000F02AFACDE90001306800F025FA020087
:1035D0000B00E968DFF82C0400F0A4FEE868401C4A
:1035E000E860E8682969C91E88420FDAE86807FBC5
:1035F00000F704EB070090ED043A99EC022A9AECEC
:10360000021A9BEC020AFFF771FE9CE0E868296948
:10361000C91E88422AD1E86878432044D0ED010AC7
:10362000E8687843204490ED000AFFF712FD86ED2C
:10363000140A3C2228213C20EB687B432344D3ED31
:10364000010AEB687B43234493ED000AFFF718FD62
:10365000F064E86807FB00F704EB0700D0ED040A0C
:1036600096ED140AF06CFFF763FD6CE0E8682969D9
:10367000891E884236D1E86878432044D0ED010A9B
:10368000E8687843204490ED000AFFF7E2FC86EDFD
:10369000140A282214212820EB687B432344D3ED0D
:1036A000010AEB687B43234493ED000AFFF7E8FC33
:1036B000F064E86878432044D0ED040A96ED140ADB
:1036C000F06CFFF735FDE86878432044D0ED010A3F
:1036D000E86807FB00F704EB070090ED000A00F034
:1036E00077F830E0E8682969491E88422BD1E868FC
:1036F00078432044D0ED010AE8687843204490EDF7
:10370000000AFFF7A6FC86ED140A142200211420FB
:10371000EB687B432344D3ED010AEB687B432344EE
:1037200093ED000AFFF7ACFCF064E86807FB00F7D4
:1037300004EB0700D0ED040A96ED140AF06CFFF7D5
:10374000F7FC00F095F8002004B0BDEC048BBDE858
:10375000F28F000010B52DED028B0400AA4890EC0A
:10376000028A2000002816D0012815D0022814D083
:10377000032813D0042812D0052817D006281AD001
:1037800007281DD0B0F1FF3F1FD1002200210020EB
:10379000FFF7ABFC19E018E017E016E015E0DFEDED
:1037A000820A9FED810A00F013F80EE0532184484D
:1037B000FFF752FE09E053218248FFF74DFE04E077
:1037C00051217E48FFF748FEFFE7BDEC028B10BD9C
:1037D00010B52DED048BB0EE408AF0EE608A764C89
:1037E00094ED000A30EE480AD4ED000A70EEC80AE3
:1037F00020EE200AD4ED010A70EEE80A94ED011AD9
:1038000031EE681A00EE810A00F034FAB0EE409A08
:103810007B4890ED000AB4EE409AF1EE10FA1ADB04
:10382000F0EE680AB0EE480AFFF713FC84ED140AC4
:103830004FF4967200219620F0EE680AB0EE480A26
:10384000FFF71EFCE064DFED580A94ED140AE06C0B
:10385000FFF76EFC09E0002055494860D4ED020AEC
:103860009FED510A0020FFF763FCBDEC048B10BDF7
:103870004F480021C1610021C16000214E4AD1643E
:103880000121816000214B4A11615FF0FF314161EC
:103890007047000070B5484E96ED0A0AD6ED0D0A45
:1038A00030EE200A86ED000A96ED0B0AD6ED0E0AE0
:1038B00030EE200A86ED010A96ED0C0ADFED3B0A98
:1038C00080EE200A10EE100A00F0A6F83E4A4F4B98
:1038D000FEF7AEFE04000D00F06B00F09DF8220034
:1038E0002B00FFF767FA00F0BBF8B06096ED000A16
:1038F000D6ED030A30EE600A10EE100A00F08CF8E4
:10390000434A444BFFF70EF900F0AAF8B06196ED78
:10391000010AD6ED040A30EE600A10EE100A00F03B
:103920007BF83B4A3B4BFFF7FDF800F099F8F0615C
:1039300096ED020AD6ED050A30EE600A10EE100A86
:1039400000F06AF8324A334BFFF7ECF800F088F8E1
:103950003062D6ED070A96ED060A00F010FB00F083
:10396000F8FA51EC100B00F07BF870623068F060F0
:1039700070683061B068706170BD10B5FFF78AFF84
:103980000C4CE068012806D1A068002803D1084843
:103990004069FFF7DFFEA068012804D1E068002835
:1039A00001D100F04DFE10BD0000000000003443C6
:1039B00004CC0020E0CB0020C0C70020B0100020C5
:1039C00050200020F02F0020282D4454FB21F93FE7
:1039D000A0CC00200CFEFFFF2C00002020CD0020FA
:1039E00018CD00201CCD00200C000020D8CC0020D9
:1039F000D0CC0020E0CC0020E8CC0020F0CC00208F
:103A00004C0000206CB8000878BB0008FB2109407E
:103A10007B14AE47E17A743FC0F3C75181B1FF29EF
:103A200006D0C110400721F0E04101F1605170471C
:103A300041020CBF40F4E0016FF0004100207047EC
:103A400000F0004100020AD0B0FA80FC00FA0CF04D
:103A500001F16051A1EB0C5101EBD0214005704701
:103A600001F000428B1AA3F16051B1F5801F0ADB0F
:103A7000B1F17F6F1FD242EAC102C10071F1004172
:103A800042EB507070470B15C3F10903212B10D284
:103A9000890241EA905180020128494141F00041E8
:103AA00021FA03F0C3F12003994071F10041504124
:103AB0007047100070476FF0000013EB103F5CBFC1
:103AC000000E42EAC0507047B0EE401A71EE601A24
:103AD00090ED040A31EEC00A9FED5C2A20EE022A26
:103AE00090ED060ADFED5A2A00EE222AC0ED041AF4
:103AF00090ED070AD0ED032A41EE802AC0ED032A9B
:103B000090ED050AD0ED032AB4EE620AF1EE10FA48
:103B100002D54169C16010E090ED030AD0ED052A9D
:103B2000F1EE622AB4EE620AF1EE10FA05D590EDDC
:103B3000050AB1EE400A80ED030A80ED062A90EDF9
:103B4000000A21EE800AD0ED012A02EE220AD0ED11
:103B5000032A90ED023A02EE830A704780B5DFED4A
:103B60003D0AB4EE600AF1EE10FA0CDB10EE100A1A
:103B7000FFF752FF3C4A3D4BFFF71CF9FFF770FF80
:103B800000EE100AEBE7DFED340AB4EE600AF1EE66
:103B900010FA0CD510EE100AFFF73EFF324A344BF4
:103BA000FFF708F9FFF75CFF00EE100AEBE701BD35
:103BB00080B52DED048BF0EE408AB0EE608A38EED1
:103BC000C89AB0EE490AFFF7C9FFBDEC048B01BDEE
:103BD00080B52DED068BB0EE409AF0EE609AB0EE17
:103BE000418AF0EE618A9FED1DAAB4EE489AF1EE8B
:103BF00010FA1DD1F4EE689AF1EE10FA03D59FED9C
:103C0000180AB0EE40AAF0EE689AF5EE409AF1EE8E
:103C100010FA03D09FED110AB0EE40AAF4EE698AC3
:103C2000F1EE10FA0CD59FED0F0AB0EE40AA07E0B6
:103C300078EE490A38EEE90A00F0F8FDB0EE40AA45
:103C4000B0EE4A0ABDEC068B01BD0000A69BC43E47
:103C5000A4701D3FDB0F4940DA0F49C0000000008F
:103C6000DB0FC93FDB0FC9BF282D4454FB2119C00E
:103C7000FB211940B5EEC00AF1EE10FA02D4B1EE04
:103C8000C00A70476FF0004C00EE10CAAFF300801E
:103C90007047000038B504005B4D28002100282241
:103CA000FEF76AFB280000F084F8584D28680028C9
:103CB00007D100220FF211210FF2112000F009FEAE
:103CC000286000F0FBFE31BD70B504000D0004203B
:103CD000FDF7BCF8060034602A0031004B4800684C
:103CE00000F025FE70BD10B549494848006800F055
:103CF0006BFE04002000002801D04648A04746483B
:103D00000068002802D0434800F0E8F810BD70B504
:103D10000400424E424D2B0032000021200001F0F1
:103D200001F9B068002803D130683949086002E021
:103D3000706837490860374895ED000B80ED000B3F
:103D400001203849086070BDF8B504000D003649FF
:103D5000200080B20860002088602B4F334B2A007F
:103D6000380001F043F800260020761C4EF6612151
:103D70008E42FAD339688F682D490F4201D0002056
:103D800003E02C4800F0CEFA0120F2BD38B5040063
:103D90000D0025494C6004208860244B2A001A48F5
:103DA00001F024F8002801D0012000E0002032BDFD
:103DB000704710B50400002303221F49200000F0C3
:103DC0003DF8200000F0E2FF002801D001F0BAFB2E
:103DD0000221200001F052F9002801D001F0B2FBCD
:103DE0000421200001F04AF9002801D001F0AAFBCB
:103DF0000D480021C160002181600821016100217E
:103E0000017510BD0000000090CB002014CD0020F3
:103E100010CD0020C8CC002008CD002024CC0020EC
:103E2000C0CC002030CD002040CC00200CCD0020A4
:103E30000202020038B30008000000202DE9F0471C
:103E40008AB005000E0014001F00059700200690A0
:103E500001200790002C02D03068400100E00020D3
:103E600000900020019040F2FF795FF0000A504678
:103E700080B2A0420CD2504680B256F82000316881
:103E8000C9434840804618EA09091AF1010AEEE7D9
:103E9000002C03D0484680B2400100E00020029090
:103EA0000220039000200490012008900E20099029
:103EB0006946280000F0D6FE002801D001F042FB40
:103EC0000AB0BDE8F0870000006870470068096824
:103ED000884201D1002000E00120704770470000B7
:103EE00041EC100B01BD80B501F0C4FDF8E780B5D1
:103EF00053EC112B51EC100B01F0E6FDF0E780B50F
:103F000051EC100B02F0A2F8EAE780B551EC100B6F
:103F100002F09EF8E4E70000B0EE402AF0EE602ADE
:103F200032EE010AB0EE403A32EEA10AF0EE403A2B
:103F3000B0EE430AF0EE630A704780B520EE012A26
:103F400000EEA12A12EE100AFFF766FD41EC100BFD
:103F500001BD80B52DED028BB0EE408AF0EE608A97
:103F600028EE080A08EEA80A10EE100AFFF754FD22
:103F700041EC100B02F06EF8BDEC028B01BDB0EE0F
:103F8000401AF0EE601AB0EE412AF0EE612AB0EE6F
:103F9000420AF0EE620A704780B52DED048BB0EE58
:103FA000409AF0EE609AB0EE418AF0EE618A19EE26
:103FB000100AFFF731FD53EC182BFEF739FBFFF722
:103FC0004FFD00EE100AB0EE409A19EE900AFFF78E
:103FD00023FD53EC182BFEF72BFBFFF741FD00EE02
:103FE000100AF0EE409AB0EE490AF0EE690ABDEC14
:103FF000048B01BD80B52DED048BB0EE409AF0EE40
:10400000609AB0EE698AB1EE490AF0EE408AB0EEED
:10401000480AF0EE680AFFF79CFF0020194953ECAC
:10402000102BFEF77FFD41EC110BB0EE480AF0EECD
:10403000680AFFF7B1FFBDEC048B01BD80B52DED23
:10404000028BB0EE408AF0EE608A18EE100AFFF79D
:10405000E3FC31F000410C4A0C4BFEF7F3FB0CD2B1
:1040600018EE900AFFF7D8FC31F00041064A074BE2
:10407000FEF7E8FB01D2012000E00020BDEC028B3E
:1040800002BD00000000F03F8DEDB5A0F7C6B03EC8
:1040900070B50400DFF8D853280021004022FEF755
:1040A0006BF96322DFF8CC13280002F04BF9DFF83C
:1040B000C8636322DFF8C413300002F043F900F054
:1040C0000DF82868C06850F010002968C860306892
:1040D000C06850F010003168C86070BD10B5DFF8DE
:1040E000A0432068002807D10022DFF898130FF2C0
:1040F000A12000F0EEFB20600FF2B912DFF8881368
:10410000DFF8880300F0E4F810BD2DE9FC41DFF88A
:104110008063DFF880532A006946300000F08FF892
:1041200004002900009800F0AEF8050062275FF057
:10413000000842463900300002F02AFD0020DFF876
:1041400058130860BDE8F3812DE9F84F0400DFF84B
:1041500020532068296888423AD1002000902068C6
:104160000068009020684068009000982068D0F8AF
:10417000009020684668280002F03FF9DFF8F472EA
:10418000B846404610F101080078002803D117F125
:1041900063008045F5D3DFF8F892B8F10101484695
:1041A00002F02AFD99F80000002802D00120BB4946
:1041B00008605FF062095FF0000ABB46524649465C
:1041C000584602F0E5FC63223900280002F0BAF8F4
:1041D000A94D2068296888422FD1002000902068CE
:1041E0000068009020684068009000982068D0F82F
:1041F000008020684668280002F0FFF8DFF8A092EF
:104200009E4F3900484602F0F7FC99F8000000285C
:1042100002D00120A349086000F0D4F85FF06208E2
:104220005FF00009BA464A464146504602F0B0FCEB
:1042300063223900280002F085F8BDE8F18F2DE9EE
:10424000F84305000E001700DFF85C82D8F8001074
:10425000280002F0F7FC04005FF00009002C0DD0EC
:10426000B9F10D0F0ADA47F8294019F10109D8F818
:104270000010002002F0E6FC0400EFE7C6F8009012
:104280000020BDE8F28370B505000E0031687C485F
:10429000006800F099FB0400002C05D031002800D4
:1042A00022689047002003E0804800F03BF801209E
:1042B00070BD000038B504000D007D4800F032F8F4
:1042C00000220FF2E9016E48006800F0ADFB31BD3D
:1042D0002DE9F84304000D0016000820FCF7B6FD98
:1042E00007002000FDF7DEFF401CFCF7AFFD804615
:1042F0002000FDF7D7FF401CFCF7A8FD81462100F8
:10430000404602F079FC2900484602F075FC3E6008
:10431000C7F804903A0041465948006800F007FB8E
:10432000BDE8F1830EB4F0B5040005AE614F330073
:1043300022006521380002F0ABFC05004C4820212A
:1043400080F839104FF47A7329000A0092B23900CC
:1043500001F03DFFF0BC5DF810FB0CB42DE9F0411D
:1043600004000D0006AFDFF84C813B002A006521F8
:10437000404602F08DFC06003000020092B2414639
:10438000200001F094FFBDE8F0015DF80CFB000097
:1043900038B504000D002900200002F097FC002829
:1043A00001D0012000E00020C0B232BDF8B5040009
:1043B0000D001600286847683A0021003E48FFF7C4
:1043C000B1FFF1BDF8B53749086800284CD000248A
:1043D000632C3FDA2948025D0D2A39D100EB040233
:1043E00052780A2A34D1492C32DA00EB0402927E48
:1043F0000A2A2DD100EB0402D27E0D2A28D10022F8
:10440000182A06DA131903449B782C4DAB54521C1E
:10441000F6E72B48294A1368036392ED030ADFEDA0
:10442000130A80EE200A80ED0A0A92ED040ADFEDFD
:104430000F0A80EE200A80ED0B0A0020086062253A
:104440000026174F32002900380002F0A1FB0BE0D4
:10445000641CBDE70020086062240025104E2A007D
:104460002100300002F094FBF1BD000000007A440E
:1044700078C90020D0C20020F8C90020FCC3002069
:1044800024CD0020AD4800086CB9000888BB0008A6
:1044900034C3002038CB002028CD002034CD0020AC
:1044A00098C300202CCD0020500000207CB90008CB
:1044B00090BB000868C2002018BB000858CC002040
:1044C000C0C7002038B50400DFF8301308680028A2
:1044D00000F0908025780A22607802FB050528000C
:1044E000C0B2002832D0012838D002283ED003289C
:1044F0004CD0042854D0052857D006285AD0072875
:104500005CD008285ED0092860D00A281ED00B286D
:1045100024D00E2844D00F2847D0142816D01528B0
:104520001CD018283CD019283FD01E280ED01F2898
:1045300014D0222834D0232837D024284AD0252844
:104540004CD026284ED0272850D053E00020886039
:104550000120C860AA48FFF7E5FE4BE00120886013
:104560000020C860A748FFF7DDFE43E0A07875286B
:104570000BD10120A44908700120A4490860012042
:10458000A3490860A348FFF7CDFE33E0A078752863
:1045900005D10120A0490860A048FFF7C3FE29E02B
:1045A0005FF0FF309E49486124E05FF0FF309C4996
:1045B00048611FE000209A4948611BE001209849AA
:1045C000486117E002209649486113E003209449AE
:1045D00048610FE00420924948610BE005209049B2
:1045E000486107E006208E49486103E007208C49B6
:1045F0004861FFE731BD814A1168002902D0916806
:10460000002900D11AE0874AB0F900100F39D160B3
:10461000B0F90210C91F9160B0F90410C91E5160B1
:10462000B0F90610891E116093685FF0FF314B43AB
:10463000936013685FF0FF314B43136070470000D5
:10464000F8B52DED048B6D490868002802D0886804
:10465000002800D1C4E0734C2068FEF7DFF941EC7C
:10466000110BB0EE418AF0EE618A6068FEF7D6F970
:1046700041EC100BB0EE481AF0EE681AFFF737FC69
:1046800051EC100BFFF7ECF909EE100A6068626854
:10469000236821684B4302FB0030FEF7BFF941EC71
:1046A000100B01F0D7FC51EC100BFEF799F98500C7
:1046B000962D02DA0020050002E05B4880ED149A96
:1046C00040F25920854202DB4FF416700500564E29
:1046D000F76CEF1B062F03DBF06C401DF06407E066
:1046E00017F10A0F03DAF06C0A38F06400E0F564A1
:1046F000E068E268A368A1684B4302FB0030FEF764
:104700008DF941EC100B01F0A5FC51EC100BFEF7FC
:1047100067F900EE100AF8EEC09A9FED330AF4EE46
:10472000409AF1EE10FA2EDBA068FEF777F941EC23
:10473000110BB0EE418AF0EE618AE068FEF76EF987
:1047400041EC100BB0EE481AF0EE681AFFF7CFFB01
:10475000B0EE401AF0EE601ADFED240AB0EE608A87
:1047600051EC110BFFF77CF900EE100AF0EE480A4D
:10477000FFF71EFADFED1E0A20EE200AFFEE000A08
:1047800020EE208A01E09FED1B8A96ED150A78EE57
:10479000408A9FED190AF4EE408AF1EE10FA08DB28
:1047A00096ED150AF1EE040A30EE200A86ED150AA0
:1047B0000FE0B9EE040AF4EE408AF1EE10FA06D5E5
:1047C000D6ED150A30EE800A86ED150A01E086ED79
:1047D000158AD6ED150A96ED140AF06CFEF7A8FCC2
:1047E000BDEC048BF1BD00000100C842DB0FC93FE6
:1047F0000000C842000000000100A040E0CB002003
:10480000D4B60008ECB6000895CD002078CD002085
:104810007CCD00205CB9000880CD002004B70008E2
:1048200004CC002038C90020C0C7002052EC101A68
:10483000B0EEC00AC80F49005200F0EEE00A28BFEF
:104840000C3011F1807F38BF12F1807F0CD28A4288
:1048500038BF80F00400124214D034BF80EE800ACA
:1048600080EE200A02F058BA11F1807F08BF80F074
:10487000040098BF12F1807F08D88A4214BF00223A
:104880004FF07E5200EE102A02F046BA6FF000415F
:1048900000EE101A70470000884201D0012000E0AD
:1048A0000020C0B2704780087047704710B4020003
:1048B00041F2055013001978002906D041011C78F7
:1048C00051FA84F108185B1CF5E720F0004010BC99
:1048D000704770B506000C0015004FF4C670FCF769
:1048E000B5FA3100002901D0310000E06C49C16007
:1048F0002100002901D0210000E06A49016129005E
:10490000002901D0290000E06749416110F1180138
:10491000016000211F2905DA0022036843F82120E5
:10492000491CF7E7002242600022826070BD2DE939
:10493000F84305000E0017005FF00008002D06D1B7
:1049400053225A495A4802F039FAAFF30080002E38
:1049500006D15422554951A002F030FAAFF300803D
:104960003000296988471F21B0FBF1F901FB1909C3
:10497000286850F82940002C07D021683000EA68E8
:104980009047002801D0A468F5E7002C13D10C2033
:10499000FCF75CFA0400002C01D1002012E0266034
:1049A000286850F82900A060286840F82940686805
:1049B000401C686001E0606880466760A868401C31
:1049C000A8604046BDE8F283F8B505000E00002D52
:1049D00006D176223549364802F0F0F9AFF300806F
:1049E000002E06D1772231492CA002F0E7F9AFF36F
:1049F00000803000296988471F21B0FBF1F701FBD7
:104A00001707286850F82740002C07D0216830008D
:104A1000EA689047002801D0A468F5E7002C01D08F
:104A2000606800E00020F2BD2DE9F84305000E00AB
:104A30001700002D06D1A3221C491D4802F0BEF923
:104A4000AFF300803000002806D1A422174919488E
:104A500002F0B4F9AFF30080D5F808805FF00009E8
:104A6000B9F11F0F18DA286850F829000400002C4B
:104A70000FD03A00211D2068B047A868804506D0B5
:104A8000AA220A490C4802F099F9AFF30080A46801
:104A9000EDE719F10109E3E7BDE8F1836B65790002
:104AA00099480008A7480008AB48000874B10008FE
:104AB00054BB0008B0BB000838B4000880B50FF242
:104AC0002101E620FFF700F908494FF4A270FFF733
:104AD000FBF8074940F24510FFF7F6F801BD00006A
:104AE00010B504000348FFF71DFC10BDF745000892
:104AF000C54400080CBB000870B50400002C01D1AF
:104B00000120AEE094F82000002802D1200002F03D
:104B10008AF92068006830F002002168086002F01D
:104B2000C9F905002068406880070DD502F0C2F978
:104B3000401B0B28F6D3606A50F4003060620520F9
:104B400084F8200001208CE02068006850F001000B
:104B50002168086002F0AEF9060020684068C007CE
:104B60000DD402F0A7F9801B0B28F6D3606A50F42D
:104B700000306062052084F82000012071E0207E72
:104B8000012806D12068006850F080002168086084
:104B900005E02068006830F0800021680860607ED1
:104BA000012806D12068006850F0400021680860A4
:104BB00005E02068006830F0400021680860A07EB1
:104BC000012806D12068006850F0200021680860A4
:104BD00005E02068006830F0200021680860E07E71
:104BE000012806D12068006830F0100021680860B4
:104BF00005E02068006850F0100021680860207F00
:104C0000012806D12068006850F00800216808607B
:104C100005E02068006830F0080021680860607FC7
:104C2000012806D12068006850F00400216808605F
:104C300005E02068006830F0040021680860A16881
:104C4000E068014320690143606901436068401ED8
:104C500001432068C16100206062012084F82000C7
:104C6000002070BDF0B40200146892F820301800E3
:104C7000C0B2012804D01800C0B2022840F07F80E2
:104C8000594DD5F8000250F00100C5F80002D5F8E2
:104C9000000230F47C50C5F80002D5F800024E6ADC
:104CA00050EA0620C5F8000201200E7D16F01F060E
:104CB00010FA06F6D5F81C02B043C5F81C02C86904
:104CC000002816D1D5F80C02B043C5F80C0248698B
:104CD00005EBC000CC684F68C7EA0444C0F8404206
:104CE000486905EBC0008C680F68C7EA0444C0F847
:104CF0004442C869012816D1D5F80C023043C5F8E2
:104D00000C02486905EBC0000C684F68C7EA044410
:104D1000C0F84042486905EBC0008C68CF68C7EA1C
:104D20000444C0F844428869002805D1D5F804023B
:104D3000B043C5F8040204E0D5F804023043C5F8D6
:104D400004020869002805D1D5F81402B043C5F85B
:104D5000140204E0D5F814023043C5F81402086ABE
:104D6000012804D1D5F81C023043C5F81C02D5F83F
:104D7000000240084000C5F80002002004E0506A2C
:104D800050F4802050620120F0BC704738B5040018
:104D900094F82000012821D1022084F82000206806
:104DA0000068400840002168086002F083F80500B0
:104DB00020684068C0070DD502F07CF8401B0B2826
:104DC000F6D3606A50F400306062052084F8200059
:104DD000012008E000206062002004E0606A50F4D6
:104DE00000206062012032BD00640040F0B5040084
:104DF00094F820502068866888680028FFD0280032
:104E0000C0B2012804D02800C0B2022840F084803B
:104E100016F0E05F7AD0C6F30167032F05D3606A0E
:104E200050F40000606201207BE00120B84018606F
:104E3000886800280BD10868D1F80CC05CEA405C97
:104E400020685FEA071E7044C0F880C10DE0486822
:104E5000D1F808C05CEAC00CC86850EA0C0C2068A5
:104E60005FEA071E7044C0F880C10869D4F800C02A
:104E70005FEA071EF444CCF88401087D01280ED1B6
:104E800020685FEA071C6044D0F8840150F4807009
:104E9000D4F800C05FEA071EF444CCF88401D0794E
:104EA00092F806C05FEA0C4C5CEA006C50795CEA50
:104EB000002C107950EA0C0C20685FEA071E704441
:104EC000C0F88CC1D07892F802C05FEA0C4C5CEA62
:104ED000006C50785CEA002C107850EA0C0C2068CA
:104EE0005FEA071E7044C0F888C120685FEA071CAB
:104EF0006044D0F8800150F00100D4F800C05FEAAF
:104F0000071EF444CCF8800100200AE0606A50F4E7
:104F100000106062012004E0606A50F4802060624A
:104F20000120F0BD70B4040094F820502800C0B2F5
:104F3000012804D02800C0B2022840F0988000293F
:104F40000AD12068C06810F0030F10D1606A50F4D5
:104F50000010606201208FE02068006910F0030FEC
:104F600005D1606A50F400106062012084E020687E
:104F70000E013044D0F8B00110F004009060906849
:104F8000002807D120680E013044D0F8B001400D50
:104F9000106006E020680E013044D0F8B001C0086F
:104FA000506020680E013044D0F8B001C0F34000DA
:104FB000D06020680E013044D0F8B40110F00F002A
:104FC000106120680E013044D0F8B401C0F307200E
:104FD000906120680E013044D0F8B401000C50619B
:104FE00020680E013044D0F8B801187020680E0116
:104FF0003044D0F8B801000A587020680E013044DF
:10500000D0F8B801000C987020680E013044D0F838
:10501000B801000ED87020680E013044D0F8BC01F1
:10502000187120680E013044D0F8BC01000A587194
:1050300020680E013044D0F8BC01000C9871206843
:105040000E013044D0F8BC01000ED871002906D101
:105050002068C06850F020002668F06005E02068F5
:10506000006950F0200026683061002004E0606A8A
:1050700050F480206062012070BC704710B40200C0
:1050800092F820301800C0B2012803D01800C0B236
:10509000022806D110684069084314686061002046
:1050A00004E0506A50F480205062012010BC704728
:1050B0002DE9F84F050000242868466928684768EC
:1050C0002868D0F808802868D0F80C902868D0F8B4
:1050D00010A02868D0F818B0F00755D55FEAC8705E
:1050E00018D50120296888605FEA887003D52800F8
:1050F00001F0E6FE0EE05FEA487002D554F4006469
:1051000008E05FEA087002D554F4805402E02800F9
:1051100001F0D7FE5FEAC85019D54FF480702968B6
:1051200088605FEA885003D5280001F0CBFE0EE0CE
:105130005FEA485002D554F4005408E05FEA085092
:1051400002D554F4804402E0280001F0BCFE5FEA7E
:10515000C83019D55FF48030296888605FEA8830EC
:1051600003D5280001F0B0FE0EE05FEA483002D51A
:1051700054F4004408E05FEA083002D554F4803467
:1051800002E0280001F0A1FE300707D55FEAC96000
:1051900004D554F4007410202968C860700708D53D
:1051A0005FEA097005D508202968C8602800FEF765
:1051B000FFFDB00707D52868C06810F0030F02D0C4
:1051C0002800FEF7A4FD700607D55FEACA6004D583
:1051D00054F48064102029680861B00608D55FEA9D
:1051E0000A7005D5082029680861280001F06EFEC4
:1051F000F00607D52868006910F0030F02D02800D8
:1052000001F065FEB00307D5F80605D51020296822
:105210004860280001F05CFEF00307D5380705D58B
:10522000082029684860280001F053FE300447D563
:10523000780742D5F00506D51BF00100C0B2002862
:1052400001D054F00104B00504D55FEA8B7001D59C
:1052500054F00204700504D55FEA4B7001D554F098
:105260000404300529D51BF0700F26D01BF0700008
:1052700010280AD020280BD030280CD040280DD080
:1052800050280ED060280FD011E054F008040EE032
:1052900054F010040BE054F0200408E054F04004F3
:1052A00005E054F0800402E054F48074FFE72868BD
:1052B000806930F07000296888610420296848609E
:1052C000002C05D0686A20436862280001F002FEC5
:1052D000BDE8F18F90494A7848686423B0FBF3F049
:1052E00082184A700A7848783C2390FBF3F08218C1
:1052F0000A7048783C2290FBF2F302FB13004870DE
:1053000048686422B0FBF2F302FB13004860704768
:1053100080B501F0E1FD00F041F801F0F7FD01F08A
:10532000A9FE01F00BFF01F05BFD01F0B7FF01F0FA
:10533000D1FF01F0EBFF02F005F802F01FF802F0D8
:1053400039F87649764802F0E7FA02F013FBFDF7E8
:1053500027FE02F027FB02F0F5FB02F0E7FC01203C
:10536000704908607048012101600121C16000217D
:10537000816002F0E6FAFFF7ADFF02F0EDFC02F00B
:10538000D0FD02F035FB02F011FB02F023FF02F02A
:10539000E0FF02F00FFCFEF7F0FAEAE780B592B00A
:1053A00006A8302102F0F8FF01A8142102F0F4FF52
:1053B000002000905D48016851F080510160006854
:1053C00010F080500090009800200090584801682C
:1053D00051F480410160006810F480400090009812
:1053E000022006900120099010200A9002200C90C3
:1053F00000200D9008200E90A8200F900220109001
:105400000420119006A802F0CBFF002801D000F084
:1054100099F80F20019002200290002003904FF491
:10542000A05004904FF480500590052101A803F08E
:1054300077F9002801D000F085F813B000BD38B529
:10544000394D2868012865D13A4C2068401C2060FD
:105450004FF47A702168226892FBF0F200FB121080
:10546000002801D1012028624FF4FA7021682268D7
:1054700092FBF0F200FB1210002803D101212E480C
:1054800003F080FB206814200A202168226892FB28
:10549000F0F200FB1210002803D11F484168491C9C
:1054A000416005202168226892FBF0F200FB121097
:1054B000002810D10120686101201A4908601F48A6
:1054C0000068012801D1012068600120E861012005
:1054D00028610120A86143F698202168226892FB88
:1054E000F0F200FB121000280DD1144908680028C2
:1054F00009D101200860012210210F4803F035FB7B
:105500000F48FEF70FFF20684EF66021884201DB4E
:105510000020206031BD0000F8CC002068CB0020C6
:1055200038CA00205CCD0020E0CB0020403802408B
:105530000070004058CD00200000024004CC002044
:1055400048B90008704700002DE9B04C41EC100B41
:105550002DED028B43EC182B53EC102B23F0004164
:10556000B1F5801F82B00DD20022914208BF904257
:10557000009216D06A4651EC100BFDF72BF941EC66
:10558000100B0EE0DFF8A844DFF8A87404EB11500C
:1055900000903B40DFF8A004924643EA000B4BEC3E
:1055A00010AB53EC102B51EC180BFDF741F841EC0C
:1055B000100B4800009A400D1218C8B1002A17DDE0
:1055C00040F2FF70824209DB9FEDAD1B53EC112BC3
:1055D00001F000410B4343EC102B19E06FF31E5117
:1055E00041EA025155EC104B0D4645EC104B0FE0D3
:1055F00051EC100B21F000410022914208BF904273
:1056000006D0009A51EC100BFDF74CF941EC100B51
:1056100064E000002DE9B04C41EC100B2DED028B45
:1056200043EC182B53EC102B23F00041B1F5801FF5
:1056300082B00DD20022914208BF9042009216D053
:105640006A4651EC100BFDF7C5F841EC100B0EE06B
:10565000DFF8DC43DFF8DC7304EB115000903B40D3
:10566000DFF8D403924643EA000B4BEC10AB51EC4D
:10567000100B53EC182BFDF755FA41EC100B4800BA
:10568000009A400D1218C8B1002A17DD40F2FF70D1
:10569000824209DB9FED7A1B53EC112B01F0004194
:1056A0000B4343EC102B19E06FF31E5141EA0251FA
:1056B00055EC104B0D4645EC104B0FE051EC100B28
:1056C00021F000410022914208BF904206D0009A8A
:1056D00051EC100BFDF7E6F841EC100B02B051EC69
:1056E000100BBDEC028BBDE8B08C00002DE9F0443E
:1056F0002DED028B002A41EC180B1D4600F0B980FD
:1057000021F000474FF0000A20F00006574508BF7F
:10571000564500F0AE8048004015401C02D10903F8
:1057200000F0A780002A9FED580B16D552420FF2C9
:10573000503708261446002C18BF002E54D0E0071E
:1057400007D5D7E9002351EC100BFCF771FF41ECB2
:10575000100B64080837761EEDE773DD0FF2203773
:1057600008261446E00707D5D7E9002351EC100BB3
:10577000FCF75EFF41EC100B64100837761E002C1E
:1057800001DD002EEED153EC102B51EC180BFFF77E
:10579000DBFE21F0004320F00002534508BF5245D4
:1057A00041EC180B4ED048004015401C01D10903B4
:1057B00048D0002C46DDA14AA14B51EC180BFFF755
:1057C000C3FE20F0000231F0004308BF524541EC17
:1057D000180B37D048004015401C01D1090331D0C7
:1057E000641E002CE7DC2DE053EC102B51EC180B61
:1057F000FFF710FF21F0004320F00002534508BFDF
:10580000524541EC180B1DD048004015401C01D1F9
:10581000090317D0B4B18B4A934B51EC180BFFF727
:1058200093FE20F0000231F0004308BF524541ECE6
:10583000180B07D048004015401C01D1090301D0C6
:10584000641EE8D151EC180B21F0004320F0000257
:10585000534508BF524505D048004015401C08D1AB
:10586000090306D1AFF300801DB1286840F00100A4
:10587000286051EC180BBDEC028BBDE8F0840000F1
:10588000000000000000F07F000000000000F03F7A
:105890002DE9F14D81B05FEA03082DED028B84B054
:1058A0001CBF0020C8F80000079D0C46934607A8BF
:1058B00003F096F9C11020F00800012801F0010A58
:1058C00030D10220009001AB07992246284603F010
:1058D00019FA040008BF9FED650B1ED00298FDF772
:1058E0009DF8022C41EC100B17DB03AF661E9FEDF9
:1058F000568B51EC100B53EC182BFCF799FE044619
:1059000057F8040B0D46FDF789F822462B46FDF7A4
:1059100051FA761E41EC100BEBD10198434600EB97
:105920000B0262E0022867D1009001AB0799224682
:10593000284603F0C9FA040008BF9FED4C0B1ED0A7
:105940000298FDF76BF8022C41EC100B17DB03AF4C
:10595000661E9FED3F8B51EC100B53EC182BFCF7A0
:1059600067FE044657F8040B0D46FDF757F822462C
:105970002B46FDF71FFA761E41EC100BEBD151ECD4
:10598000100B019C4800400D04EB000219D0002AC6
:1059900017DD40F2FF70824209DB9FED2F1B53ECB5
:1059A000112B01F000410B4343EC102B1BE06FF374
:1059B0001E5141EA025155EC104B0D4645EC104B7F
:1059C00011E051EC100B20F0000221F00043002008
:1059D000834208BF824206D0224651EC100BFCF7EE
:1059E00061FF41EC100B43465A4651EC100BFFF798
:1059F0007DFE41EC100B0AE0032808BF9FED160B5B
:105A000005D004280CBF9FED160B9FED180BBAF1C3
:105A1000000F05D051EC100B81F0004141EC100B50
:105A200004B051EC100BBDEC028BBDE8FC8D000006
:105A300002FCFFFFFFFF0F800000E03F3CBF737FD1
:105A4000DD4F1575436FAC640000000065CDCD419E
:105A5000000000000000B041000000000000F07FE6
:105A6000FFFFFFFFFFFFFF7F2806C80A00000000BE
:105A70000000000000230022002109E700000000D0
:105A80000000000000002440000000000000594019
:105A9000000000000088C3400000000084D7974148
:105AA0000080E03779C34143176E05B5B5B893461A
:105AB000F5F93FE9034F384D321D30F94877825AE6
:105AC0003CBF737FDD4F157510B52DED048B41EC98
:105AD000180B43EC192B51EC190B48004015401CD6
